:020000040002F8
:10600000A0590020C1630200C9630200CB630200F3
:10601000CD630200CF630200D163020000000000E4
:10602000000000000000000000000000D363020038
:10603000D563020000000000D7630200D9630200AC
:106040001D660200DB6302007D690200DB63020063
:10605000DB630200DB63020079650200DB630200A0
:10606000DB630200DB630200DB630200DB63020030
:10607000DB630200DB630200DB630200DB63020020
:10608000DB63020075660200DB630200DB63020073
:10609000DB630200DB63020085660200DB63020053
:1060A000DB630200DB630200DB630200DB630200F0
:1060B000DB630200DB630200000000000000000060
:1060C000DB630200DB630200DB630200DB630200D0
:1060D000DB630200DB630200DB6302000000000000
:1060E00000000000000000000000000000000000B0
:1060F00000000000000000000000000000000000A0
:10610000000000000000000000000000000000008F
:10611000000000000000000000000000000000007F
:10612000000000000000000000000000000000006F
:10613000000000000000000000000000000000005F
:10614000000000000000000000000000000000004F
:10615000000000000000000000000000000000003F
:10616000000000000000000000000000000000002F
:10617000000000000000000000000000000000001F
:10618000000000000000000000000000000000000F
:1061900000000000000000000000000000000000FF
:1061A00000000000000000000000000000000000EF
:1061B00000000000000000000000000000000000DF
:1061C00000000000000000000000000000000000CF
:1061D00000000000000000000000000000000000BF
:1061E00000000000000000000000000000000000AF
:1061F000000000000000000000000000000000009F
:10620000DFF80CD000F07AF900480047ADB7020083
:10621000A059002030B450E8012F93B2C489234420
:106220008489A34228BF1B1B0489A34202BFBFF37A
:106230002F8F002007E0C3EA020340E80134002C5E
:10624000E9D14FF001000A6030BC704750E8012FDF
:10625000C2EA024240E801210029F7D1704730B478
:1062600050E8022F1FFAA2F3C488A34202BFBFF373
:106270002F8F00200DE0C48923448489A34228BFC6
:106280001B1BC2EA034340E80234002CE8D14FF064
:1062900001000A6030BC704750E8022FC2EA224277
:1062A00040E802210029F7D17047034653E8022F46
:1062B000D988B2EB324F4FF0000017BF92B241EADB
:1062C000014142EA014104E05A68B2EB324F08BF93
:1062D000012043E80212002AE8D1704730B4044696
:1062E00054E8000F0D4644E80053002BF8D1156028
:1062F00030BC704730B4044654E8000F40EA010552
:1063000044E80053002BF7D1156030BC704730B41F
:10631000044654E8000F00EA010544E80053002B4E
:10632000F7D1156030BC704730B4044654E8000F14
:1063300080EA010544E80053002BF7D1156030BC1A
:10634000704730B4044654E8000F00EB010544E800
:106350000053002BF7D1156030BC704730B40446B1
:1063600054E8000FA0EB010544E80053002BF7D1DF
:10637000156030BC704770B404464FF0000054E81C
:10638000006F0D68AE4207BF44E80023012044E8D7
:1063900000630E60002B1CBF0020F0E770BC70474C
:1063A00030B4044654E8000F88422CBF451A054615
:1063B00044E80053002BF5D1156030BC7047000055
:1063C0000648804706480047FEE7FEE7FEE7FEE78F
:1063D000FEE7FEE7FEE7FEE7FEE7FEE7A566020052
:1063E000016202002DE9F05F0546002092469B46BF
:1063F00088460646814640241BE0284641464746DB
:10640000224600F06BF853465A46C01A914110D309
:1064100011461846224600F016F82D1A67EB0108BF
:106420004F4622460120002100F00DF817EB00092D
:106430004E41201EA4F10104DFDC484631462A46C5
:106440004346BDE8F09F202A04DB203A00FA02F11F
:10645000002070479140C2F1200320FA03F3194352
:106460009040704700487047802E030040EA0103C7
:106470009B0703D009E008C9121F08C0042AFAD2FA
:1064800003E011F8013B00F8013B521EF9D27047BE
:10649000D2B201E000F8012B491EFBD27047002266
:1064A000F6E710B513460A4604461946FFF7F0FF13
:1064B000204610BD421C10F8011B0029FBD1801A98
:1064C000704730B504460020034600E05B1C934251
:1064D00003D2E05CCD5C401BF8D030BD202A04DB49
:1064E000203A21FA02F00021704721FA02F3D0404D
:1064F000C2F120029140084319467047064C074DEF
:1065000006E0E06840F0010394E807009847103483
:10651000AC42F6D3FFF778FE244503004445030060
:1065200070B58C1810F8015B15F0070301D110F855
:10653000013B2A1106D110F8012B03E010F8016B82
:1065400001F8016B5B1EF9D12B0705D40023521E05
:106550000DD401F8013BFAE710F8013BCB1A921C6D
:1065600003E013F8015B01F8015B521EF9D5A1426B
:10657000D8D3002070BD00002DE9F8430025DFF8D6
:1065800094804FF4807601242F460095304606F023
:106590002DFA38B1D8F80403204203D0304606F073
:1065A0001BFA2543361D64007F1CB6B2082FEDD3BD
:1065B0004FF4BE74204606F019FA48B1204606F0A2
:1065C0000BFA45F000456A460121002006F0D4F997
:1065D00015F0FF0F16D0012600242E420ED008EB36
:1065E0008401D1F81005D1F81015C0F304200A4A2F
:1065F000C1F3014152F8242002B190477600641C97
:10660000082CEAD3002D02DA684609F0F5FDBDE852
:10661000F8830000006000400C31002070B54FF49A
:106620008076304605F050FD114CB50560B130461E
:1066300005F051FD0120C5F80803607920B901205B
:1066400060712168002088474FF48276304605F05B
:106650003BFD00280AD0304605F03DFD0220C5F87C
:1066600008032168BDE870400120084770BD0000A4
:106670004826002002490248091F096800680847A7
:10668000C826002010B50021054A084600F0D0FBBE
:10669000002803D0BDE8104000F0BEBB10BD0000D4
:1066A000ED710200F0B5A449A4484FF080540B6886
:1066B000D4F830210078D4F83411551CC0F30310FD
:1066C00006D0944601270026BCF1060F03D00AE04D
:1066D00003F0FF0CF6E7B4F82453DFF864C2C5F307
:1066E0000425CCF80050DDB2062D06D1032804D1D4
:1066F000DFF854C2934DCCF87450551C04D0944626
:10670000BCF1060F03D00AE003F0FF0CF8E7D4F861
:106710004452DFF838C2C5F34235CCF80050DDB240
:10672000062D08D1032806D1894DD5F800C02CF0DC
:10673000807CC5F800C0551C04D09446BCF1060FFF
:1067400003D00BE003F0FF0CF8E74FF08045C5F8ED
:106750000C61C5F810617D4D2D1F2E60DDB2062D38
:1067600008D1032806D1DFF8E4C103250CF1640C3D
:10677000CCF80050DDB2062D10D103280ED1DFF881
:10678000D4C10525CCF80050724D78352F60714D7D
:1067900008352E600CF104063F253560551C04D0E9
:1067A00016460D46062E03D05BE0DEB20546F9E73D
:1067B000ED1E012D55D9684D2D68684E3560664D2A
:1067C0002D1D2D68361D3560634D08352D68361D2D
:1067D0003560614D0C352D68361D35605E4D1035C8
:1067E0002D68361D35605C4D14352D68361D3560BD
:1067F000594D18352D68594E20363560564D1C358B
:106800002D68361D3560544D20352D68361D356098
:10681000514D24352D68361D35604F4D28352D6876
:10682000361D35604C4D2C352D68361D35604A4D72
:1068300030352D68494E40363560474D34352D682A
:10684000361D3560444D38352D68361D3560424D56
:106850003C352D68361D35603F4D40352D68361D61
:106860003560551C03D01646062E02D007E0DEB276
:10687000FAE7D4F858523A4E05F04F053560551CEA
:1068800003D01346062B02D008E0DBB2FAE7354806
:106890000368DB0702D06FF001030360062A07D10B
:1068A000C91E022904D93048016841F480610160A1
:1068B00027487438016841F470010160BFF34F8FBD
:1068C000BFF36F8FD4E94C104FF01022062907D187
:1068D000C01E032804D9D2F808021C491C310860E4
:1068E000D2F80002002803DBD2F8040200281FDAE5
:1068F000012007F0B9FA1521C2F800121B480368FD
:10690000002BFCD0C2F8041201680029FCD0002042
:1069100007F0AAFABFF34F8F0D48F0380168144A08
:1069200001F4E06111430160BFF34F8F00BFFDE749
:10693000114910480860F0BDE00F00F0E80F00F0CA
:10694000403501400DF0ADBA00C007403C050040A5
:10695000FCED00E0105600400404001020C500408B
:10696000E40E0040000400403C17004000E40140F9
:106970000400FA050090D003882700200148006831
:10698000004700005026002002E008C8121F08C17E
:10699000002AFAD170477047002001E001C1121FA0
:1069A000002AFBD1704700000121202803DA814032
:1069B0000548014003E0402802DA2038814009B14F
:1069C0000120704700207047FC06FFBD2DE9F84309
:1069D000804643F2020659B9694608F0A3FCB0426A
:1069E00002D008B100F018FA9DF80000800744D4E6
:1069F0000021404608F0A0FC05003ED0112D3CD0FF
:106A00001F482049401AC708022000EB07440D2DFB
:106A10000AD00B2D1DD0B5421FD11B49204642463E
:106A2000BDE8F84306F0E8B920464246174906F0AB
:106A3000E3F91321404676DF00281ED006F012FE4F
:106A4000024601B020464346BDE8F04310A106F0DF
:106A5000DAB9204642461C49E2E7284606F002FE23
:106A60000246012000EB0740434618A106F0CBF98F
:106A70002846BDE8F84300F0CFB9BDE8F883000030
:106A80008C45030054450300F436030080360300B0
:106A900073645F626C655F6761705F646973636F85
:106AA0006E6E65637428292072657475726E6564F4
:106AB000202573206F6E20636F6E6E5F68616E6459
:106AC0006C652025642E0000403703004173736518
:106AD0007274696E672E20706D5F636F6E6E5F7388
:106AE000656375726528292072657475726E6564B8
:106AF000202573206F6E20636F6E6E5F68616E6419
:106B00006C652025642E000010B560B159B1027883
:106B10000B785208B2EB530F05D10622401C491CDA
:106B2000FFF7CFFC08B1002010BD012010BD800789
:106B300001D00020704701207047C3688B4206D8FF
:106B400011440069491E814201D80120704700208C
:106B5000704790F82400012801D01F207047EE20D4
:106B6000704710B501220221002001F0DBFF08B1BF
:106B7000072810D107220221012001F0D3FF08B11C
:106B8000072808D100210A22084601F0CBFF08B1EE
:106B9000072800D1002010BD10B5ACB0AC2168466C
:106BA000FFF77DFC02218DF80010012405208DF8EF
:106BB00002408DF803001A480590ADF8104000F52A
:106BC000CB7009903C2269461648FFF74FFC002025
:106BD0008DF879408DF87A408DF87B0020902190D7
:106BE0002820229040F6B8308DF87C4023908DF814
:106BF0007D40A020249044F2506025900A482990BE
:106C00000A482A9069460A4800F096FD08B100F04B
:106C100003F90121064800F08AFD2CB010BD0000E8
:106C20007E220020E02C002081DE02003577020069
:106C30009C28002010B560B10D480E49401AC008CC
:106C4000032101EB00400CA106F0D2F809F02AFA6A
:106C500006E001200BF0C0FB03210B4800F04DFEC5
:106C6000002803D0BDE8104000F0D6B810BD0000E9
:106C70000446030054450300457261736520626F4A
:106C80006E647321000000009C28002070B58CB059
:106C900015460E4600236C46C3F10F01415CE154DA
:106CA0005B1C102BF8D30D2104F11000FFF7F7FB4C
:106CB0000020C0F10F02315C2244401C11740328F3
:106CC000F7D3684646DF0020C0F10F01214491F858
:106CD00020102954401C0328F6D30CB070BD0220AC
:106CE00001F00EBE0149C97801F094B8D425002006
:106CF00070B50024064D06E06868012110F83400E4
:106D000006F024FD641C28788442F5D3002070BD71
:106D100058260020F8B516460C4605460A2A01D228
:106D20000720F8BD06F00CFE18B906F0CFFD0028CC
:106D3000F7D1134F102113487D603C70BE60FFF700
:106D4000AEFB0020C7E904000F4E0DE005EBC400C8
:106D50003168009181788DF8011000780B4A6946FE
:106D600006F044FD0028DCD1641EE4B2EED2BDE89A
:106D7000F84005480021064A001D00F0E5B8000073
:106D800058260020B8310020DC2A030021A7020089
:106D9000DD95020072B606F0D5F800BF05F00CFFD5
:106DA0000028FBD111481249401AC408012000EB09
:106DB000044010A106F01CF811480068C00700D07C
:106DC00000BE022000EB04400EA106F011F8BFF354
:106DD0004F8F0B48E43801680E4A01F4E06111431B
:106DE0000160BFF34F8F00BFFDE7000004460300C2
:106DF00054450300466174616C206572726F7200C5
:106E0000F0ED00E053797374656D207265736574FD
:106E1000000000000400FA050EB500210091CDE944
:106E200001106A4644F20100FFF7B4FF0EBD0000F6
:106E30002DE9F84F254C8146924660880E468142E6
:106E400041D800274FF6FF788DF80070684600F0B3
:106E500005F922786078A188884201DA401C00E0B8
:106E60000020C0B2904204D19DF8000000F01AF951
:106E700027E065786078884201DA401C00E0002055
:106E800060709DF8000000F00DF9454519D0A0682C
:106E9000B9F1000F40F835A00DD066B16188E06807
:106EA000324605FB01004946FFF7E0FAA06800EB17
:106EB000C500868002E000EBC50087800020BDE8A9
:106EC000F88F0420FBE70920F9E700009026002056
:106ED00010B50E4C03E0401C00E00020207020782C
:106EE0006178814210D022786188E068A36802FB53
:106EF000010003EBC20153F83220898890472078C3
:106F0000A1888842E9DAE6E710BD0000902600205B
:106F100030B5CB0008339DB293074FF0000401D089
:106F2000072030BD044B9A602A44DA605C701C7004
:106F300058809980002030BD90260020014802F042
:106F4000B4BB0000A826002010B55AB100684FF06D
:106F5000FF3401294261C0E9024400D000210161EF
:106F6000002010BD072010BD38B511480823582255
:106F7000416800910F49006804F051FE002815D1C6
:106F80000D4A69460D4802F095FB04000ED101211F
:106F90000A4802F00AFC0123094A1946074802F090
:106FA0005CFB0649012008390870204638BD000006
:106FB000E42A0300D8310020210B0300A82600207A
:106FC000FFFF7F00F8B50446002617460D468DF8F2
:106FD0000060684600F042F8D4E90201C04370EA5C
:106FE000010005D09DF8000000F05CF80020F8BD1D
:106FF00003F07CFB40197141C4E902019DF80000D7
:1070000000F050F8A761206900B125612146BDE874
:10701000F84000200AF09EBE38B5044600208DF8E6
:107020000000684600F01AF8D4E90201C04370EA93
:1070300001000DD04FF0FF30C4E902009DF80000C0
:1070400000F030F82146BDE8384001200AF082BE49
:107050009DF8000000F026F8002038BD30B5EFF3B1
:10706000108172B60D4A9468012324B1037000297F
:1070700000D162B630BD93604FF0E023D3F8805169
:10708000074C25401560C3F88041D3F88441546013
:107090005A17C3F8842100220270E8E7303200203A
:1070A000FC06FFBD0B498A68002A11D000280FD1C9
:1070B000EFF3108072B60B684FF0E022C2F8003197
:1070C0004B68C2F8043100228A60002800D162B601
:1070D00070470000303200202DE9F0410646086874
:1070E0000C46411C4FF0A0474FF0010506D005FAB1
:1070F00000F1C7F80815206805F018FC6068411C0D
:1071000002D0002105F000FC3168A069C1F8240517
:10711000607D227D31681043C1F86C05D4E900120E
:107120003068C0F81425C0F80C15207D012815D151
:10713000A068411C02D0002105F0E6FBE068411C7C
:1071400005D08540C7F80855E06805F0EFFBD4E9A5
:1071500002123068C0F80825C0F81015BDE8F081AB
:107160002DE9F041064608680C46411C4FF0A04747
:107170004FF0010506D005FA00F1C7F808152068A0
:1071800005F0DEFB6068411C02D0002105F0C5FB64
:107190003168A069C1F82405607D217D326808430B
:1071A000C2F86C05D4E900123068C0F80C15C0F8BC
:1071B0001425207D012815D1A068411C02D0002192
:1071C00005F0ABFBE068411C05D08540C7F80855C9
:1071D000E06805F0B5FBD4E902123068C0F8082574
:1071E000C0F81015BDE8F08104F0A6B906F088B922
:1071F0002DE9F047814605884A484FF000088AB0DB
:1072000001784246284600F01DFE99F80500400727
:1072100001D4002176E005F58077B8B205AB0122F4
:10722000072107F073FC04003F48404A4FF001017A
:10723000A0EB02004FEAD00001EB00460AD0204646
:1072400006F010FA024630462B46394905F0DBFDC0
:10725000214629E0284603F079FE4FF6FF710446E7
:1072600088422BD18A46069803F0DAFD0446504541
:1072700010D00146284603F049FE2846FFF732FDAC
:10728000E0B9284609F016FF2846FFF72BFD002835
:10729000BFD013E007F010FE0446504508D1304639
:1072A00024A105F0A5FD0421284609F031FFB0E72F
:1072B0000146284603F02AFE4FF00108B8B22246E4
:1072C000072107F09BFC07001BD0862F1ED006F07D
:1072D000C9F9024630462B462349009405F09BFD30
:1072E0003946284609F014FF0021484607F006FBFE
:1072F000B8F1000F02D0204603F012FE0AB0BDE83C
:10730000F0870121484607F0F9FAF7E714221749F8
:107310006846FFF7ABF8ADF80250684602F066FC2D
:10732000EFE70000D42500209445030054450300F6
:107330003C3A0300436F756C64206E6F7420616C7F
:107340006C6F63617465206E657720706565725F30
:10735000696420666F7220696E636F6D696E672065
:10736000626F6E642E000000583B03007C2A03000D
:1073700070B5044690B0087B0D468DF8380020218A
:1073800005A8FFF78CF842F61920ADF8140001208B
:10739000ADF81800ADF81A000EA80790617C9DF8B2
:1073A0002100A21D61F3041040F002008DF82100BD
:1073B000A87B8DF82700687B8DF82500A08805A99B
:1073C00001F034FE00281CD1A968E1B10FA801F03A
:1073D0001BFA064614216846FFF761F842F60810CA
:1073E000ADF80000E87B8DF806000FA8ADF80A6044
:1073F000ADF80E600490E08804F10E02694602F0D8
:1074000097F810B070BD0020E081FAE710B50E4982
:107410000E4809F0B8FEC1B24FF6FE720C4800F0FB
:1074200097FB00280FD011280DD013280BD00F2860
:1074300009D0082807D043F20141884203D0BDE8B3
:107440001040FFF7E9BC10BDD02C002084220020A2
:10745000682800200A4601461046AEDF704770B526
:107460001500044609D00020286034B1206820B1FE
:10747000A079800703D0072070BD0E2070BD08469C
:1074800000F048FCC0B2142804D02179814203D80E
:10749000042070BD052070BDE288216800FB021049
:1074A0002860002070BD2DE9FC470025178806469E
:1074B000158090F82D001446894630B13A46214691
:1074C000484600F0E5FC051E09D1B0784FF00C0AE3
:1074D00018B32088C846001DB84202D95046BDE8FE
:1074E000FC87684679DF0028F9D12088032108F855
:1074F000001020881921401C80B2208008F800105C
:107500002088401C80B2208000EB0801BDF80000FC
:107510000AF0EFFD218808442080F0780222C8B1EB
:10752000218896F9033001F1030C4846BC45D5D8B3
:10753000425421884FF0010C491C89B2218000F887
:1075400001C02188491C89B2218009F801302088B6
:10755000401C20807068B8B1218890F9003001F19A
:10756000030C4846BC45B9D8425421880A22491C1C
:1075700089B2218042542188491C89B2218009F8AE
:1075800001302088401C2080308950B1CDE900476F
:107590004B460622022106F108000AF099FE051E5C
:1075A0009DD1308A50B1CDE900474B4607220321D7
:1075B00006F110000AF08CFE051E90D1308B50B100
:1075C000CDE900474B461522142106F118000AF0B8
:1075D0007FFE051E83D1306A30B13B4622464946C4
:1075E00001F059FE051EDBD1706A30B13B462246E0
:1075F000494604F0AAF9051ED2D196F82C0038B1FC
:107600003B4622464946304609F0F2FE051EC7D1E8
:10761000307838B13B4622464946304604F068FA95
:10762000051EBDD128465AE718B504460020ADF81E
:10763000000013466A46204600F006F8002802D0F3
:10764000BDF80000204418BD70B5E0B1DAB10024E7
:1076500002E0045D2C44A4B2651C8D4206D216885B
:10766000A642F6D8061976789E42F2D18C420AD20A
:10767000A31C005D9BB200B1401E0004000C02D0B0
:107680001C188C4201D9002070BD138070BD7FB5DD
:1076900016460D46040048D02078F0B355EA06009F
:1076A00043D000200090019002900390A5B1D4F83F
:1076B0002004016804F15500814200D1EE300090B1
:1076C0002046FFF746FAADF80400284601AA0099C3
:1076D000FFF7E9FE002824D1A6B1D4F82004816880
:1076E00004F23120814200D1EE3002902046FFF7B3
:1076F00030FAADF80C00304603AA0299FFF7D3FE2A
:1077000000280ED19DE80F0004F5826585E80F0082
:107710002946002204F1540000E004E0C4F82014DB
:1077200072DF04B070BD0820FBE70E20F9E780F897
:1077300030107047FFF770BB2DE9F0410D00044693
:1077400006D02CB195F87A000026012803D006E077
:107750000E20BDE8F08195F89800012829D0D5F8D1
:10776000A000042825D0D5F89C00042821D04FF093
:107770000108A6702C2205F17801201DFEF776FE87
:1077800084F83060D5F8A4006063D5F8A800A06341
:107790004FF6FF70A4F8240404F58260C4F82004B6
:1077A000C4F82664A4F82A6484F82C64207810B104
:1077B00004E00720CDE7FF2084F8540004F15507CA
:1077C0002046C4F81074FFF7C4F9A4F8140404F2B6
:1077D000144239462846FFF766FE0028B9D104F264
:1077E0003120C4F818042046FFF7B3F9A4F81C04AC
:1077F00004F21C4205F13C00D4F81814FFF753FEC4
:107800000028A6D184F85180208BA4F8480084F881
:107810003C80266484F850606069002160644546BD
:1078200004F13C02781E72DF002892D1257090E7A7
:1078300010B50288102A1BD0112A20D0262A1DD16B
:10784000007A0C46012801D0022817D1A078052122
:10785000401CB0FBF1F201FB1201204600F04DF894
:1078600000280BD0A16B002908D0BDE810400847C4
:10787000C27B012A02D18088A1F8240410BD0C46E5
:10788000002184F82E148088B4F824148842F5D19D
:1078900020790028F2D10121DFE790F82D246AB188
:1078A000002280F82D240A68C0F826248A88A0F8CF
:1078B0002A24897980F82C1400207047082070470A
:1078C00010B5044690F8540074DF012084F82E04AB
:1078D000002084F8300484F850000621204602F08D
:1078E000C0FB002808D1A178204600F006F810B1AE
:1078F000A16B01B18847002010BD2DE9F05F04465F
:1079000000780F4698B1A7700025C4F82654A4F853
:107910002A5484F82C54A079012608B1012F09D0EB
:10792000E07980B1012F05D0022F03D00BE00820B1
:10793000BDE8F09F616B21B184F82D640820884771
:1079400001E084F82D5404F2274100200A5C0AB1BA
:10795000304603E0401C0628F8D300204FF0020810
:107960004FF0030B012F06D0022F0CD0032F0FD0A6
:10797000042F15D110E0A17929B194F8241011B980
:1079800008B130460DE0E17911B108B1404608E098
:10799000207A08B1584604E0607A08B1042000E07B
:1079A0002846A070616B41B1032801D0042804D19E
:1079B000607910B194F82E0498B184F82F5404F132
:1079C0003C0018210746FEF76AFD84F83C6004F18C
:1079D0002C0007F005FC58B194F82C0084F85100F5
:1079E00008E084F8305484F82F6407208847E6E7DD
:1079F00084F8516094F8240058B104F1280007F08D
:107A0000EFFB20B194F8280084F8520001E084F8DC
:107A1000526084F85050A27804F2264104F582693D
:107A20004FF0060A052A64D2DFE802F07C030F2239
:107A3000420084F83160C4F82054C4E9101584F879
:107A40003C808020A4F8480055E084F8318094F808
:107A50002420384612B10722027001E080F800B0FD
:107A6000228A8281C4F820544160E168B96042E012
:107A70006069B860208BB88194F824003D460028E6
:107A8000204602D084F83CA001E084F83C600AF073
:107A9000EBFB50B185F814800421204602F0E1FA96
:107AA00038BB052184F8311021E084F831B01EE0A4
:107AB000E069B860208CB88194F824003D46002825
:107AC000204602D084F83CA001E084F83C600AF033
:107AD000CBFB48B185F814800421204602F0C1FA9E
:107AE00038B984F831A002E0042084F83100C4F8E9
:107AF0002094A07878B13A4604F15400D4F82014C8
:107B000072DF00287FF414AF94F8301094F854001A
:107B100073DF0028F6D1616B11B194F8310088470A
:107B2000002005E784F83150F5E790F82F340099EC
:107B300033B1002380F82F340A4303D0012102E03F
:107B400008207047002180F83014002070470000A2
:107B5000F7B594B0174605003CD0287C9DF854102A
:107B60000024884252D000264FF0010E0D9615A831
:107B7000ADF834E00E90ADF83660E9880DAA4FF606
:107B8000FF70ACDF040026D19DF854002874687C97
:107B9000A0B30F96109611961296E888ADF83C00A7
:107BA000BDF83600ADF840000DA811900E98129067
:107BB000A7F57F408DF83EE0FE3805D039460FA886
:107BC000FFF748FC044621E0684600F09DF80025D8
:107BD0006F460FE00E2017B0F0BD00BF07EB450663
:107BE000B08800F0F9F8022803D144B10FA9B08899
:107BF000AEDF6D1C0098A842F0D807E005E0B18820
:107C00000FA8FFF727FC0446F3E708242046E2E725
:107C100038B50D46040018D0BDB128682060287919
:107C20006074FF20207401208DF8020041F60F00DF
:107C3000ADF80000221D69460120A8DF002803D10D
:107C400029462046FFF794FB38BD0E2038BD38B5D5
:107C5000002924D0002822D00288502A1FD10546AE
:107C6000487C0C4600281AD0E9886289A81D9142F8
:107C700015D14189022912D1216800290FD00C3079
:107C800000F0BEFD08B1002000E001208DF80000EA
:107C9000A888ADF80200226869462046904738BDA2
:107CA00070B5040012D001461C221448FEF7DEFB1A
:107CB0001248134D0560206850B17ADF002806D1C4
:107CC0002068016829604068686005E00E2070BD8A
:107CD0000B487BDF0028FAD108484FF6FF711438B3
:107CE000084A20F8041B0549343901600021FFF7D8
:107CF0002BF90028EBD0032070BD00007C2D002064
:107D000028250020012203000149496801F0A4BA96
:107D1000982D002010B5044600F0B0F808B12046B8
:107D200010BD142010BD000010B5044600F0A6F8E8
:107D3000002805D02146BDE81040024803F0EEBF00
:107D400010BD0000A82D002070B515460E46044653
:107D50000AF096FA002809D0054800EB8400C069B3
:107D60002A463146BDE8704002F0A8B970BD000057
:107D7000982D002010B5044600F080F8002805D0AA
:107D80002146BDE81040024803F0C8BF10BD000006
:107D9000B02D002010B5044600F070F8002805D082
:107DA0002146BDE81040024803F0B8BF10BD0000F6
:107DB000AC2D002070B50546002400F05FF838B106
:107DC0002946044803F0AAFF08B1022400E0012478
:107DD000204670BDA42D002070B50546002400F09B
:107DE0004DF838B12946044803F098FF08B1022441
:107DF00000E00124204670BDA02D002010B5182100
:107E0000034803F066FF182800D0C0B210BD000080
:107E1000982D002070B505460C4608460AF030FA49
:107E200060B1284600F02AF840B10548294600EB29
:107E30008400BDE870401C3003F070BF002070BDAE
:107E4000982D002070B5054616460C4608460AF0E7
:107E500017FA00280ED0284600F010F8002809D0A4
:107E60000548324600EB84002946BDE870401C30CE
:107E700002F0F2B870BD0000982D0020142801D344
:107E8000002070470146014803F048BF9C2D0020A8
:107E90007CB5054608880C460930904201D90C2073
:107EA0007CBD68466DDF0028FAD12188082068541F
:107EB00020881B21401C80B2208029542088401C2F
:107EC00080B220802844DDF801100160BDF8051063
:107ED00081802088801D80B220809DF80010490894
:107EE00000D0012129542088401C208000207CBD26
:107EF0001FB5044601208DF8060041F60A00ADF8D2
:107F00000400494A01A90120A8DF00287DD1228868
:107F10005AB14548801C009094F83C3042F6292024
:107F2000616801F053F800287BD122895AB13E489C
:107F30000A30009094F83C3042F62420E16801F0C9
:107F400045F800286DD1228A5AB137481230009086
:107F500094F83C3042F62520616901F037F800289A
:107F60005FD1228B5AB130481A30009094F83C30DF
:107F700042F62720E16901F029F8002851D1228C2E
:107F80005AB129482230009094F83C3042F626201D
:107F9000616A01F01BF8002843D1228D5AB12248B2
:107FA0002A30009094F83C3042F62820E16A01F033
:107FB0000DF8002835D1216B79B102A809F010FE27
:107FC000194808223230009094F83C3002A942F659
:107FD000232000F0FBFF002823D1606B60B1124921
:107FE0003A3100910279016894F83C3042F62A2037
:107FF00000F0ECFF002814D1A16B89B102A808F0B1
:10800000E1F809484230009000E00AE094F83C3082
:10801000072202A942F6502000F0D8FF002800D124
:10802000002004B010BD0000F225002038B5018802
:108030000446212932D015DC1F48204A204DA0EBF0
:1080400002004FEAD0004FF0030202EB004010297B
:1080500010D0112905D11BA104F0CAFE4FF6FF7004
:10806000688038BD3B2923D05629FAD18088132156
:1080700076DF0DE017A104F0BBFE072000F074FDD1
:1080800008B1FEF7C9FEA1886980154803F0A4FF76
:108090000028E6D0BDE83840FEF7BEBE00200090C4
:1080A000A08869468FDF0028DBD0FEF7B5FE38BD1B
:1080B0008088132176DFEBE7044603005445030074
:1080C00078220020446973636F6E6E656374656423
:1080D00000000000436F6E6E65637465640000000D
:1080E0009028002010B51A4C0188606810290ED025
:1080F00011292BD1401E606028D1FEF732FD0028E7
:1081000024D02168002921D0BDE810400847D0B90B
:1081100000210122084600F005FD08B107280FD113
:1081200007220221012000F0FDFC08B1072807D139
:1081300004220221002000F0F5FC20B1072802D023
:10814000216801B188476068401C606010BD000074
:10815000202500202DE9F04701883B4E40F2F3191D
:108160004FF6FF7510291BD011293ED0122954D08B
:10817000502946D1C188F289841D914241D161893B
:1081800002293ED18688304603F018F8050038D021
:1081900004F10C0000F034FBA8B3294630464EE051
:1081A000C17B8788044601292BD1A846284603F0C5
:1081B00005F8050017D02F80002028722348434679
:1081C0004A460168C5F80A104068C5F80E0004F177
:1081D000100105F10A0003F0B5F86872F089002873
:1081E0000FD129462AE0042013E0808802F0E6FF40
:1081F000040006D06068FEF70FFF08B108F06CFFBE
:108200002580BDE8F087FFE76868FEF705FF0028D6
:10821000F7D0BDE8F04708F05FBF878806463846CC
:1082200002F0CCFF0400ECD02B464A4606F10801D0
:1082300004F10A0003F086F8607221463846BDE872
:10824000F04701F06FB800007C2D002028250020A9
:108250002DE9F04F044686880188424897B083464E
:1082600010290CD0112950D0103019296AD01A29A0
:1082700074D1217A0C09042C4DD301224CE0394DE4
:10828000083DA868C0430B9069680BA803F06AFD1D
:108290000B990CA800F0E0FF2C220CA96846FEF711
:1082A000E5F80027E946A84610E000BF09EB4700C3
:1082B0005FF00005B0F804A008EB85005146001DF2
:1082C00003F0ECFC6D1C1E2DF6D37F1C0098B84209
:1082D000ECD8142E05D317B00420BDE8F04FFEF7FC
:1082E0009BBD3146584603F024FD314608F1040099
:1082F00003F01FFDE07B022830D117B03146BDE806
:10830000F04F1848001D03F014BD17B03146BDE80A
:10831000F04F03F0C3BC0022314601F09DFE032C58
:1083200001D3012200E000220E4831460C3001F05A
:1083300093FE022C01D3012200E0002209483146BD
:10834000083006E0217A002908D1617AC1F3C00221
:10835000314617B0BDE8F04F01F07EBE17B0BDE862
:10836000F08F0000A02D002070B51F4E044686B08F
:108370007078002836D02088A588102811D0317850
:108380002846FFF747FD00282CD1204602F044FC88
:10839000204609F0F5F806B02046BDE8704001F02F
:1083A000E1BF00208DF80000142101A8FEF777F846
:1083B00001208DF804004FF6FF70ADF8080004F1BD
:1083C00008000390ADF80650CDF810D001A801F0D8
:1083D000F7FB9DF8002031782846FFF733FD9DF824
:1083E0000000D0E706B070BD642500202DE9F04FF5
:1083F0008BB01F46DDE9144BDDF8589090468A4655
:10840000060045D0A9F57F41FF3943D0E51CA8B24D
:10841000ADF82000082837D807AA4946D6F87801D1
:10842000FFF71DF8002830D107988DF810A08DF8BF
:1084300011800B308DF81270079004AF24B12246E2
:108440005946F81CFEF712F8BDF8202004A9079839
:10845000FEF70CF800200090019002900390B6F80F
:108460005E11ADF8040008A8ADF80010CDE90207D0
:1084700001218DF8021069464846AEDF002804D17C
:1084800002990988A94200D00C200BB0BDE8F08FFA
:108490000E20FAE70820F8E72DE9F04391B00C46EA
:1084A00005000DD064B1A07A0A2805D8207C0A28DE
:1084B00002D8207E0A2805D9072011B0BDE8F08334
:1084C0000E20FAE72068286060686860A07AA874C7
:1084D000207C85F87800207E85F8DE0001268DF866
:1084E000226041F61200ADF8200005F1080208A94B
:1084F0003046A8DF0028E0D1002709E0A06B01AAE0
:1085000030F817102889A9DF0028D6D17F1CFFB2C8
:1085100094F83600B842F1D8207A4FF0000808B934
:10852000607A38B394F83C9094F83D708DF83060E0
:1085300020216846FDF7B3FF42F64E20ADF800005B
:108540000CA802909DF80D00ADF8046040F0060004
:108550008DF80D008DF81190ADF806608DF8127051
:108560008DF80F60288905F10A02694600F05EFD6A
:108570000028A2D12146284602F0EAFD00289CD11D
:10858000207C18B3606908B300271CE06069CDF84F
:10859000108000EBC7039DF8100007EB870140F047
:1085A0000E008DF8100005EB4100191D7A30CDE961
:1085B000001033F8022B04A9284608F089F9002896
:1085C00099D17F1CFFB2207CB842DFD8207E18B33F
:1085D000E06908B300271CE0E069CDF80C8000EBEF
:1085E000C7039DF80C0007EB870140F00A008DF8E7
:1085F0000C0005EB4100191DE030CDE9001033F807
:10860000022B03A9284608F063F90028B1D17F1C8A
:10861000FFB2207EB842DFD82146284608F0A5F9EF
:108620000028A6D1207A70B305F5A770009004F158
:108630004203082242F62221284600F0EBF80028E7
:1086400097D120216846FDF72AFF42F63220ADF887
:1086500000009DF80D00ADF8046040F00E008DF8AC
:108660000D0094F845008DF8110094F846008DF83F
:1086700012008DF80F60288905F5AB72694600F08D
:10868000D5FC00289CD1607A60B105F5AF700090F0
:1086900004F13F03082242F63321284600F0BAF8DD
:1086A00000288DD12146284602F0C5F9002887D13F
:1086B00094F83E708DF80880202109A8FDF7EFFEA0
:1086C00042F64C20ADF824009DF83100ADF828604A
:1086D00040F004008DF8310002A88DF83670ADF836
:1086E0002A600B90288905F5B77209A900F09EFC55
:1086F00000288BD1E168C5F87C116169C5F880114B
:10870000E169C5F88411D8E62DE9F04786B09846AE
:10871000DDF838A016460F4604001ED0B8F1000F51
:108720001BD0A07CB8424FD907EB870004EB400078
:10873000AAF57F4100F11409FF3943D0ADF8146068
:10874000002504AA5146D4F87801FEF788FE0028D7
:1087500004D10498133004900BE00E2006B0BDE85D
:10876000F08700BF30F8350004996D1C0844EDB265
:108770000490D4F87C01BD42F4D330F83700B04205
:108780001ED3324641460498FDF770FE002000904B
:10879000019002900390B9F80010ADF8040005A80C
:1087A000ADF80010CDE9020801218DF802106946EC
:1087B0005046AEDF0028D1D102990988B142CDD010
:1087C0000C20CBE70820C9E70720C7E70A46014687
:1087D00010460A88102A05D0502A05D0512A05D102
:1087E00005F002BE05F026BC05F066BE704770B508
:1087F00004460D460846FDF75DFE2080656070BDAD
:10880000007800F0010070470A78027049784170E2
:10881000022070472DE9F04188B00F4605461C46FE
:10882000164620216846DDF83880FDF738FE9DF8B1
:108830000D00ADF8007040F00201ADF804608DF855
:108840000D10607810B141F0080101E021F008013D
:1088500041F010008DF80D0020788DF8110060783F
:108860008DF81200A0788DF8130001208DF80F000C
:1088700028894246694600F0D9FB08B0BDE8F0817E
:108880000149085C70470000142903000649095C8F
:108890004FF0A040D0F81005C84010F0010000D003
:1088A000012080F001007047142903002DE9FC41EC
:1088B0000646C0074FF000050ED0104F00240122DD
:1088C000385D009500231146019503F0C3FF641C39
:1088D000042CF4D300F046F8B0070DD5074E002461
:1088E000361D0022305D032300951146019503F0EB
:1088F000B1FF641C042CF4D3BDE8FC8110290300F3
:1089000007490B5C4FF0A041D1F8042501209840A5
:1089100020EA0203C1F808351040C1F80C05704781
:10892000102903000249085C012104F04AB8000044
:10893000102903000249085C002104F042B800003D
:10894000102903000649095C4FF0A040D0F8040547
:10895000C84010F0010000D0012080F001007047F5
:108960001029030010B500242046FFF7DBFF641C2C
:10897000042CF9D310BD10B500242046FFF7DAFF10
:10898000641C042CF9D310BD10B50246064B4FF001
:10899000FF3000215C5C944201D1084610BD491CA7
:1089A0000429F7D310BD00001429030070B50C4E44
:1089B0000C004FF0000530600BD0012000F06AF889
:1089C00008B1022004E0002000F064F800B10B20A0
:1089D0002070706810B9FEF7C4F80546284670BDCF
:1089E0002025002010B5002000F0F8F908B1062875
:1089F00006D1012000F0F2F908B1062800D10020CC
:108A000010BD00002DE9F0470D468146FFF7BCFF81
:108A10000446042836D2DFF874801B481C4EA8F1A7
:108A20000C0725B3012D0ED0022D2BD104EB4400F1
:108A300030444578002D25D0B968002922D0284639
:108A4000BDE8F047084704EB4401755C0E447178BB
:108A500049B10E4A4FF48041093A8068FEF7B2FAF4
:108A600008B987F80390B17808F80410E2E7806845
:108A7000FEF7D2FA04EB4401314418F804008D7873
:108A8000A842D7D0BDE8F08718290300B8240020F9
:108A9000382D0020042801D2FFF7F8BE00207047CF
:108AA000011F1E4810B540884FF6FF726FF0040397
:108AB0000E291CD2DFE801F00B1B1B141B1B071B2C
:108AC0001B1B1C21252ABDE8104008F045BD1321C1
:108AD00076DF0AE000280AD0BDE81040FEF79CB916
:108AE000904204D10E48FEF7EBFE0828F2D110BDEB
:108AF0009042FCD0002118460CE09042F7D0194675
:108B000007E09042F3D00021052003E09042EED030
:108B100005210020BDE8104002F0A0BF782200200F
:108B20009C28002070B50023042810D20D4D00EBC6
:108B30004004012A02D101290CD00022094E00EB89
:108B40004000304461B1012906D0022906D0072334
:108B5000184670BD0E30C2B22A55F9E74270F7E7E9
:108B60008270F5E7382D0020044A01460020127972
:108B7000D20702D0084600F04DB87047AC24002060
:108B800070B506461E480024C0E90161B00720D533
:108B90000025012211462846FFF7C4FF6D1C04463C
:108BA000042D02D2002CF4D013E094B940F23332F9
:108BB00004211448FEF7AEF804000AD1FEF798F835
:108BC000040006D10F48104A0021001FFEF7BCF92F
:108BD0000446F00712D00120FFF768FE74B9094877
:108BE0000A4A00210C38FEF7AFF9040006D1054807
:108BF000074A01210838FEF7A7F90446204670BD50
:108C0000AC24002024290300E98E0200D9B302001D
:108C1000DF6C02002DE9F05F6E4C0546002660789F
:108C2000B34618B184F801B002F0BEFB6A4F4FF4AE
:108C30007A694FF4C87A4FF00108182D69D2DFE83D
:108C400005F00C1313384754696E727B727BC58430
:108C500084848484B3B6B9BCC5C502F0A5FB38686A
:108C6000FEF7DAF906465CE00020FFF76BFE00280D
:108C70004FF0000008D0FFF755FE022D02D14FF44F
:108C8000E16008E0484606E0FFF754FE022D01D1FE
:108C9000C82000E05046410CC0034FF47A7280189F
:108CA00041F10001257052000023FDF79BFB0146B6
:108CB0002AE00020FFF746FE00284FF0000004D015
:108CC000FFF730FE4FF44870E5E7FFF733FEDFE7CC
:108CD0000020FFF737FE00284FF0000002D0FFF71A
:108CE00021FECFE7FFF726FED4E70020FFF72AFE9C
:108CF00000284FF0000002D0FFF714FE01E0FFF75C
:108D000019FE257040F6CD4100223868FEF75AF969
:108D1000064646E00020FFF7F3FD257008E000203E
:108D200051E025703DE084F801800120FFF7E8FD67
:108D3000002240F26661E8E784F801800120FFF735
:108D4000DFFD00224FF40051DFE77868FEF764F999
:108D50000646D5F1110000D02EB10220FFF7E2FD4A
:108D600084F802B01DE0012816D980B2C82148431A
:108D7000C117C90341EA5041C0034FF47A72801809
:108D800041F1000152000023FDF72CFB01460022B7
:108D90007868FEF717F906460220FFF7CBFD84F846
:108DA00002803046BDE8F09F02F0FEFAB9E702F01B
:108DB000FBFAB4E702F0F8FA04E002F0F5FA00205A
:108DC000FFF7B8FD0120FFF7B5FDAAE7FFF7D3FDD8
:108DD000A7E70000AC24002018290300012109F0B6
:108DE000DEBA00002DE9F84F0546861C00208DF8FC
:108DF000000091460F464FF0010A6846FEF72EF933
:108E00001B4C04F21C4860683860D4E90101194F1A
:108E1000401A3968081A0EE00121404602F09CFF12
:108E200002F072FC0146404602F096FFD4E90101CF
:108E3000401A3968081A401C8642EDD8B9F1000F73
:108E400003D0052065F3891002E0062065F39F50EA
:108E500061683A68114004EB8101C8606068304481
:108E600060609DF80000FEF71DF95046BDE8F88FE0
:108E7000803500203027002070B50D4604460A29B1
:108E800002D10D21FFF7F8FFA0682268411CA16004
:108E90001554D4E90101814204D32046BDE8704055
:108EA00003F09DB970BD00000448816840688142AC
:108EB00001D101207047002070470000803500205C
:108EC000034630B5074800210478426806E000BF39
:108ED00002EBC10005789D4203D0491CA142F7DB9B
:108EE000002030BD5826002000780221FFF78ABDFF
:108EF0001CB5044602F02AF800236A46092105F051
:108F000047FF052805D10348012241792046FEF795
:108F100099FF1CBD302500201CB5044600200090A0
:108F200042F6A620ADF8000001208DF802000848A6
:108F300001AA6946006801902046A0DF002805D1FB
:108F40000448012281792046FEF77CFF1CBD000009
:108F5000442903003025002005494FF0FF3208283E
:108F600041F8202002D3084480F8482070470000D0
:108F70000C310020F0B54FF0FF3512B10023082668
:108F800001E008230C260C4C05E000BF54F82370C8
:108F90007F1C04D05B1CB342F8D32846F0BD2618D2
:108FA0005DB286F8305044F82310002AF5D1E1185C
:108FB00081F84800F1E700000C3100200249084424
:108FC00090F93000704700000C3100202DE9F0418D
:108FD00088B01E46DDF8388014460D00074602D1E1
:108FE0000020FDF719FF14B90020FDF715FF20211F
:108FF0006846FDF754FA9DF80D00ADF8044040F0C6
:1090000002008DF80D000848ADF80070ADF806407C
:1090100002958DF8116042466946008800F006F816
:1090200008B0BDE8F0810000F22500202DE9F043F2
:109030008146887891B090460C4600B901208DF8A1
:109040003E002088ADF83C0000250095607C694614
:1090500008F06AFA6E46A07C711C08F065FAE07BA5
:1090600000289DF8020002D040F0080001E020F046
:1090700008008DF80200217C11B140F0100001E0E1
:1090800020F010008DF80200217B11B140F00100AA
:1090900001E020F001008DF80200217D09B10221DC
:1090A00000E0012161F342008DF802001C2102A8BA
:1090B000FDF7F5F9607BC10601D4800617D50E9542
:1090C0000EAFE07C791C08F02FFA9DF83800079766
:1090D00020F00F00401C20F0F00010308DF8380018
:1090E0009DF83A0020F00600801C8DF83A00607B65
:1090F0008DF80800A07B8DF80900142109A8FDF760
:10910000CEF90FA8CDE90906A088ADF83000A06817
:1091100020B1E088ADF82C00A0680D90A06998B34C
:1091200001950088ADF81000A06901AD01A9408843
:10913000ADF81200A069406806950390A069007B15
:1091400008F0F2F9A069691C407B08F0EDF9A0690C
:10915000807A00289DF8060002D040F0080001E067
:1091600020F008008DF80600A169C97A11B140F01D
:10917000100001E020F010008DF80600A169097AC6
:1091800019B140F0010002E00DE020F001008DF87F
:109190000600A169897B09B1022100E0012161F388
:1091A00042008DF80600E06900B10590434609AA27
:1091B00002A94846AADF11B0BDE8F08370B50446A5
:1091C0004FF6FF750A462846AC4209D14FF4807429
:1091D0002146104602F07DFD80B2A0420BD070BD4A
:1091E000FF2CFCD82146104602F063FD90F0010FE1
:1091F00001D0204670BD284670BD000070B5084CF7
:10920000050009D010342168002907D008682060C3
:10921000496828468847F6E70834F4E770BD00003F
:10922000F8300020054A012120B1012805D19170B4
:10923000FFF7E4BF51700020FAE77047F8300020D4
:1092400010B5D0E90234D1E90220D11AA04101D3EE
:10925000012010BD002010BD73B58CB00646002063
:1092600000900D9880B100246D4621460DA802F0B3
:1092700055FD30B1009805EB400084800098401CFB
:109280000090641C142CF0D32C2269463046FDF764
:10929000EDF80EB070BD2DE9F04117880646B81DF7
:1092A00014460D46984202D90C20BDE8F081318861
:1092B000072206290AD34FF4486C4FF6FF73614525
:1092C00001D9994202D17088062801D21046ECE7F4
:1092D000604501D99842F9D1994203D0984201D012
:1092E0008142F3D80520E85520881221401C80B225
:1092F000208029542088401C80B220804119308869
:1093000008F0F7FE2188084480B220804119708857
:1093100008F0EFFE2188084420800020C5E7FDF713
:109320007BBD000038B54A7A0F4B62B100220A7249
:109330005969002906D001228DF80020ADF80200FD
:109340006846884738BD0A7A62B19B684C68024615
:1093500019462046FDF736FE0028F3D0BDE8384018
:1093600007F0BABE5B68F1E77C2D0020F0B585B050
:1093700016460F4604461D4614220B496846FDF763
:1093800075F80A488DF80870ADF80240ADF80A602B
:109390008DF80C50017800222046FEF753FD6846F8
:1093A00000F024FC05B0F0BD902A0300D425002075
:1093B000FDF70CBB70B588B00646002005900690FE
:1093C000ADF81410ADF816100190029001AA05A98D
:1093D000304690DF050021D004F044F903461148DF
:1093E00011493246401AC108012000EB01400446F1
:1093F0000E4903F008FDBDF8042012B9BDF80600BF
:1094000028B1BDF80630204609A103F0FCFCBDF8E8
:1094100008201AB12046164903F0EEFC08B0284691
:1094200070BD00006C45030054450300B4320300D6
:10943000546865207265717565737465642054584D
:109440002F5258207061636B6574206C656E677471
:109450006820697320746F6F206C6F6E672062796B
:109460002025752F2575206F63746574732E000099
:109470000033030070B504460948012102F087FC5F
:10948000BFF35F8F0025002808D1204602F0B0F816
:10949000002803D1BFF35F8F0148056070BD000055
:1094A0003C2500202DE9FF410C4620B14FF4064039
:1094B00004B0BDE8F0812079002748F2096538B191
:1094C00041F61D5601281BD0022826D0681DEFE763
:1094D0000220207102970397E0680190694601A875
:1094E00007F00EF950B102988188E1800088208150
:1094F000BDF80010029807F081F9D9E72846D7E7B0
:109500000A4B6A460021A01D07F0B2F838B107499E
:1095100018398F61CF61A842CAD13046C8E70348E5
:109520008188019807F06AF9F5E70000E826002035
:10953000F0B587B00C4607461646142101A8FCF783
:10954000AEFFA07800B901208DF81A002088ADF890
:10955000180006A80190A079694607F0E5FF6D465E
:10956000E079691C07F0E0FFE07800289DF8020030
:1095700002D040F0080001E020F008008DF8020061
:10958000217911B140F0100001E020F010008DF8B9
:109590000200617911B140F0010001E020F001000A
:1095A0008DF80200217A09B1022100E0012161F366
:1095B00042008DF8020002956089ADF80C00A08988
:1095C000ADF80E00E089ADF8100020690590324634
:1095D00001A93846ABDF07B0F0BD000070B500242C
:1095E0000F4D10E0686800EBC406307804F064F9B1
:1095F0007178012901D0012100E00021414030783B
:1096000000F048FA641C28788442EBDBD5E90401B9
:10961000084303D0BDE8704008F0B8BB70BD00003F
:109620005826002010B50021024802F0B0FB80F35C
:10963000100010BD9C3900204FF480328A40016830
:10964000C1F848230068C0F8082370474FF4A0729F
:1096500002EB810189B200F08DBA2DE9F041054697
:109660000E464FF4A07000EB860081B228684FF4DC
:109670008034B440984622F07F47C0F808432868F9
:10968000C0F84843286803F081FD286800EB860095
:10969000C0F840752868C0F84443B8F1000F02D004
:1096A0002868C0F80443BDE8F0810068D0F80405DC
:1096B0007047000070B54379234C44F82320427969
:1096C000231D03EBC202224C1579204A121BD40839
:1096D0002DB10825022000EB04401EA130E00568F2
:1096E0000A88C5F8082590F904208978002A4FEAED
:1096F000411104DB02F1E02282F8001405E002F0DF
:109700000F0202F1E02282F8141D90F904100122E8
:10971000002909DB01F01F0502FA05F54909890056
:1097200001F1E021C1F800514179002503EBC101AD
:109730000A71417943F83100032000EB04400EA187
:1097400003F056FB284670BDC4260020E445030004
:109750005445030052544320696E7374616E63650F
:1097600020616C726561647920696E697469616CED
:10977000697A65642E0000005254433A20696E698C
:109780007469616C697A65642E00000090F90400C8
:10979000002809DB00F01F020121914040098000F0
:1097A00000F1E020C0F8001270470A46022100F0E4
:1097B00067B94FF4827100F0DDB9006801210160E2
:1097C000704700680121416070472DE9F05F07464E
:1097D0000C464FF4A07000EB84001FFA80FA386842
:1097E0004FF48036A6409B4622F07F45C0F8486380
:1097F0003868C0F808633868D0F8048500EB840244
:10980000D2F84095C2F840855146386803F0BEFC56
:10981000A9EB080020F07F40012806D1102003F0BA
:109820008DFF5146386803F0B1FC3868D0F80485E4
:10983000C0F84463A5EB080121F07F413868012995
:1098400000EB840010D0C0F840553868D0F80415FB
:109850006FF07F4C6A1A521E22F07F42ACEB0B0372
:10986000934217D362B118E06D1CC0F84055102028
:1098700003F064FF3868D0F8040540450AD10CE0D5
:1098800000EB84006D1CC0F840553868D0F8040522
:10989000884202D00D20BDE8F09F012231463846B3
:1098A00000F0EEF80020F6E713460A460021FFF725
:1098B0005DBD00002DE9F843104D0F4680461E4661
:1098C00091466946286802F0BDF9040014D01C21B5
:1098D000FCF7E5FD01202071C4F81490380BC4F8A2
:1098E0000080C4E902606946286802F0CCF906F0FD
:1098F0002BFE0020BDE8F8830420FBE7902B03003B
:1099000010B503780022072B06D2DFE803F0050428
:109910000610202930000A7010BD01230B70038946
:109920008B818388CB81C06888600A7410BD022255
:109930000A7002898A818288CA81C2688A60807DB1
:10994000062802D00020087410BD0120FBE7032286
:109950000A70C2888A810289CA81C068886010BD85
:1099600004230B70C0888881CA818A6010BD0520DD
:10997000087010BD70B5064D0646002455F8241039
:1099800009B130468847641C042CF7D370BD000031
:109990005832002030B50446006887B00D46806814
:1099A00000281FD018216846FCF779FD0195A068B2
:1099B0000590207910B1012810D107E001208DF821
:1099C000000020690290E068039005E002208DF815
:1099D0000000E068000302906069049020688168DC
:1099E0006846884707B030BDF0B585B017460C0013
:1099F00005463AD0112C38D0082C36D01C481D49C9
:109A0000401AC6080D2C11D0204603F02BFE02464A
:109A1000012000EB06402B46174903F0F4F92A46D3
:109A20000821684602F0C2F802941BE0022000EB15
:109A300006402A46114903F0DFF92A460421684608
:109A400002F0B4F827B13878C00701D0012000E057
:109A500002208DF8080000208DF80C0041F2011062
:109A6000ADF80A00684600F0CFF805B0F0BD000080
:109A70009C45030054450300243D0300143C0300AF
:109A80000368C3F84413002A02D00068C0F8041326
:109A9000704700002DE9F84F0E463449804601EB2F
:109AA0005001C007097801D00F0901E001F00F074C
:109AB0004FF00009424601204946FCF7C4FCDFF89C
:109AC000B0A004460D46052F4ED2DFE807F003167E
:109AD0001B282C00002E47D00121404607F0E6FF4E
:109AE0008DF800906846FDF7B9FA5046D0E90412A7
:109AF0000C431543CAE9044532E00EB1022114E0DB
:109B0000002112E04EB10321404607F0CFFF40464E
:109B1000BDE8F84F012108F0CBBB012105E0002E84
:109B200022D1042101E02EB103214046BDE8F84FC7
:109B300007F0BCBF0021404607F0B8FF00214046B7
:109B400008F0B6FB8DF800906846FDF787FA50469E
:109B5000E243D0E904341A4024EA0501CAE90421A9
:109B60009DF80000FDF79EFABDE8F88FB83100209F
:109B70005826002010B5006842581AB103F006FBC1
:109B8000012010BD002010BD10B50446408801F032
:109B9000DDF9A080024801682046BDE81040084772
:109BA0003825002010B50446808801F0A3F86080B5
:109BB000024801682046BDE81040084748250020BB
:109BC0002DE9F04107460024064E074D05E000BF91
:109BD00056F8241038468847641C28798442F7DBFD
:109BE000BDE8F081AC3000206425002010B50446AB
:109BF000408801F0ABF9A080024801682046BDE82A
:109C000010400847502A030001490968084700002E
:109C1000CC2A030070B586B0044614216846FCF7D0
:109C20003EFCA0890125A0F54040ADF80400207855
:109C30002F4E062833D2DFE800F0320303032C4A0C
:109C4000A08900F0EDF930B9E08943F6FE71A0F586
:109C50004040884223D8A07B8DF808002078032854
:109C60000FD000208DF80900A0680390606850B103
:109C70000A208DF8000060680490684604F0DAFF5E
:109C80000DE00120EEE709208DF800008DF810505E
:109C9000F3E7A08900F0C4F908B1E08930B1707829
:109CA000002801D005F01CF906B070BD606830B125
:109CB0000C208DF80000606802907570DDE70B20C5
:109CC0008DF80000BDF8040005F0AEF9F5E7606816
:109CD00048B115208DF80000606802904FF6FF70C3
:109CE000ADF80400C9E714208DF80000F6E7000085
:109CF0005025002038B504460F480078B0B1A4F5CF
:109D00007F40FF380FD0684606F04EFB88B1052132
:109D1000017001210171C480684606F053FB06F012
:109D200005FC002038BD48F2036038BD48F20160F0
:109D300038BD48F2076038BDF02600200D4808B550
:109D4000007888B1684606F02FFB80B106210170CB
:109D5000684606F037FB0848017809B10121017314
:109D600006F0E4FB002008BD48F2016008BD48F29F
:109D7000076008BDF02600201C330020F0B587B036
:109D800014216846FCF78BFB314C207818B16846EB
:109D9000FFF7F0FD5AE0201D01F0DBFFA0BB40F60D
:109DA000F8700168481C02D14FF0102041694FF053
:109DB0008050026940694B1C01D100FB02F125482B
:109DC00000220161A1F54051C160234902F09CFBD2
:109DD000002826D122481C238C222049006801F04B
:109DE0001EFF04F0B3FC05004FF0000615D0022D55
:109DF00013D00127062D16D005A806F0D5FAA8B174
:109E000007700C2D1DD200E020E0DFE805F01A12EB
:109E10001A121A191A191A1416142670666048F2C2
:109E20000A6007B0F0BD27706660B0E748F20760CF
:109E3000F7E7067105E0032100E00221017100E06F
:109E4000077105A806F0BEFA06F070FB0020E8E7EF
:109E5000F02600208C270020A02B03006832002071
:109E6000082B030038B5040014D0694606F048FCFE
:109E7000B0B1BDF8000000EB80010B4800EB8100A1
:109E8000C16851B1A17A41B1C168491EC1600020C9
:109E9000A07238BD48F2046038BD48F2056038BD94
:109EA00048F2096038BD0000F43200201FB501A956
:109EB000684606F0DDFB04B010BD07B513460A4640
:109EC0006946002006F0D4FB0EBD07B513460A46CE
:109ED0000021684606F0CCFB0EBD20B119B1006828
:109EE00008600020704748F204607047F8B50D46DE
:109EF000040018D0BDB1694606F002FCB0B1BDF84F
:109F000000000C4900EB800001EB800001210C30C7
:109F1000666801F021FF2E6060680C3068600120E7
:109F2000A0720020F8BD48F20460F8BD48F2096054
:109F3000F8BD0000F432002018B10323002208F01D
:109F4000B3BB48F2046070470223002208F0ACBBA8
:109F5000094910B50A69042A0AD0084A096942F871
:109F6000210005480121103001F0F6FE002010BD4F
:109F700048F20B6010BD0000D026002058320020AF
:109F80002DE9F84F044624480078D8B1F4B11221E5
:109F90002046FCF784FA0320DFF88090208000251B
:109FA00004F1100804F10E0A05EB850109EB8106A6
:109FB00030897189084487B2706804F051FB032826
:109FC00007D009E048F20160BDE8F88F48F204606C
:109FD000FAE72088401E20806088F168084460808D
:109FE0002089718908442081608938446081C7F5DF
:109FF0008060A18980B2814200D2A0815346A21D17
:10A00000211D2846CDF8008006F016FC6D1CADB26F
:10A01000022DC9D30020D7E7F0260020F43200201B
:10A0200043F6FE71A0F54040884201D801207047F8
:10A030000020704710B504460078182802D1FDF7BB
:10A04000DDFE207010BD10B504460078182802D13E
:10A05000FDF7D4FE207010BD0AB101F06ABE01F018
:10A060001DBE70B50D460446B0F81414D0F81004A7
:10A070000122FDF7D9FA00B1057004F13C0204F5A4
:10A08000826104F1540072DF70BD000070B51346A8
:10A0900000220546112900D10122074C33B1217954
:10A0A000FDF7D0FE00226178284600E06178BDE827
:10A0B0007040FDF7C7BE0000DC250020F7B517464D
:10A0C0000E0011D00098002560B10024214668469A
:10A0D00001F024FE18B1A0B23946B0476D1C641CD3
:10A0E000142CF3D32846FEBD0020FEBD406806F0C8
:10A0F0007BB900000EB517A19DF8080020F00F00F5
:10A10000401C20F0F00010308DF80800082202A852
:10A110007CDF08B1FCF780FE40F2C73078DF08B181
:10A12000FCF77AFE0020009001900620ADF80000B8
:10A130000C20ADF802001420ADF804004FF4967026
:10A14000ADF8060068467ADF002801D0FCF764FE0F
:10A150000EBD00006E5246355F50656E0000000077
:10A1600070B510B14FF4064070BD1C4C0025207B2B
:10A1700008B1257301E000F0A5F8207808282AD25C
:10A18000DFE800F02904080C10291422BDE8704013
:10A1900000F026B8BDE8704000F082B8BDE870401D
:10A1A00000F064B8BDE8704000F040B806202070B0
:10A1B00060880A4900EB8000283901EB8000406884
:10A1C000BDE8704004F0A2BA072020706560BDE8C9
:10A1D000704004F0A9BA48F20E6070BD1C33002034
:10A1E0001149F0B48A1C00200346A1F128050C187F
:10A1F000A67A4EB1A37200EB800405EB8404E668F6
:10A2000016B9247C012C0AD0401C80B20228EED35F
:10A210000B704B804B60F0BC41F61D5070471080B6
:10A22000F0BC00F03DB800001C3300200C48418811
:10A2300001EB8102A0F1280101EB8201CA6852B151
:10A240000521017007480221818001680023012255
:10A25000054802F0BDB8042202704968F6E7000024
:10A260001C330020F82600208C27002038B50A492E
:10A27000084803240B684268898803EB81015388EE
:10A280000470DB1C00201B0400909B0B034802F0B1
:10A29000F3F938BD1C330020F82600208C2700205D
:10A2A000074910B54888091D06F07AFA18B1BDE8CB
:10A2B0001040FFF7DBBFBDE81040FFF7B7BF00005D
:10A2C0001C33002070B5194C0121207808281AD2BF
:10A2D000DFE800F00419191C252929182089134AE0
:10A2E000401C2081002060802073283A00EB80030E
:10A2F00012F8233043B100232518401C80B2AB7202
:10A300000228F3D3217070BD0123F5E76068084986
:10A3100040888A88C01C10448880022004E000F035
:10A3200009F8062000E00720207070BD1C330020D3
:10A33000F82600200A4909484988026801EB810390
:10A340000749283901EB83014B6803604A60828822
:10A350000A8102228280002008747047F8260020BB
:10A360001C3300202DE9F043064680883288DFF850
:10A370005C8185B00746502A37D010DC5449554BD4
:10A3800006F10A05A1EB03014FEAD1014FF00203E8
:10A3900003EB0144352A3AD0362A07D168E0522A25
:10A3A00002D0542AF9D102E001F0C6F882E014226A
:10A3B00049496846FCF75AF8ADF80270384600F093
:10A3C000C5FDADF8040000F0C9F90022444698F834
:10A3D00004103846FDF736FD0022E1783846FDF7D7
:10A3E00031FD6846FFF7D0FB64E0307B012861D186
:10A3F000B07A01285ED13089A0F52451023959D1B3
:10A400000121384601F0ECF807F0E2FE52E098F83E
:10A410000610FDF7FFFC00284CD0002298F806102B
:10A420003846FDF70FFDF288B2F5857F17D012B1DF
:10A4300020462AA10BE02A88012A03D0204636A113
:10A4400002F0DAFC6A88012A04D0204641A102F019
:10A45000D3FC04E0A98800223846A1DF08B100211E
:10A4600025E0012298F807103846FDF7EBFC21E0C3
:10A470004FF0000998F80710FDF7CCFCD0B100228E
:10A4800098F807103846FDF7DDFCF28812B1204637
:10A4900012A104E0AA88012A04D020462DA102F0CE
:10A4A000ABFC03E0A87900B101208146494638465B
:10A4B00007F060FB0022364998F80200FDF744FCE3
:10A4C00005B0BDE8F04306F08BBE0000302500204B
:10A4D00054450300544503009C290300556E6578DC
:10A4E00070656374656420474154542073746174CB
:10A4F0007573207768696C652067657474696E6729
:10A500002043415220636861722076616C75653A20
:10A5100020307825780000004D756C7469706C658A
:10A5200020282564292043415220636861726163B9
:10A5300074657269737469637320666F756E642CD9
:10A54000207573696E67207468652066697273741C
:10A550002E000000556E6578706563746564204355
:10A5600041522063686172616374657269737469D2
:10A57000632076616C7565206C656E677468202851
:10A580002564292C2073746F726520302E00000022
:10A59000E971020070B504460078002814D1608883
:10A5A00000F0CAFF6588284600F0E8F928B107489E
:10A5B0000122C1782846FDF745FC6088FEF798FC2B
:10A5C000BDE8704007F004BE70BD000030250020DB
:10A5D00070B5204C00252570FDF710FC6070FDF76C
:10A5E0000DFCA070FDF70AFCE070FDF707FC207180
:10A5F000FDF704FC6071FDF701FCA071FDF7FEFBA7
:10A60000E07162780121182A18D0A278182A15D092
:10A61000E278182A12D02279182A0FD06279182AE3
:10A620000CD0A279182A09D0182807D004F10C0000
:10A630000560BFF35F8F2170002070BD0648074A98
:10A64000801AC00801EB0040054902F0D1FB03204D
:10A6500070BD000030250020544503005445030020
:10A66000842E03007CB504460078092837D1607A2F
:10A6700058BB207A1C4E4FF6FF75012811D00728D1
:10A6800002D008282BD121E0A08800F033FB04463B
:10A69000A84224D0012100F0A3FF2046FEF728FCA9
:10A6A0001DE0A0886A46012104F0E6F968B9019826
:10A6B000007850B1A08800F01DFBA8420FD0012205
:10A6C000F178FDF7BFFB06F08BFD08E0F06801288C
:10A6D00005D1BFF35F8F044900200C310860BDE84D
:10A6E0007C4007F075BD00003025002010B50B48F8
:10A6F000FEF7DBFF094A083AD2E90434C018D2E970
:10A70000063244F10001C31A71EB020204D24FF089
:10A710008072801841F1000110BD0000A8260020C1
:10A7200010B5C0B2FEF7CCFB0446007803F0C4F8C5
:10A7300001466078012801D0012000E0002090EA65
:10A74000010F08D00449D1E90401084303D1BDE851
:10A75000104007F01BBB10BD582600201CB5054A51
:10A76000D2E90212CDE900120022694604F04AFB48
:10A770001CBD0000B429030003484FF6FF7181801F
:10A780000121017000207047402500202DE9FC4187
:10A79000804600F0DBFB002403250127A0F57F4164
:10A7A0002646FF3908D06A46082104F065F918B931
:10A7B0000198841D8688056832462B46214640460E
:10A7C000B1DF042804D0082804D00B2808D002E008
:10A7D000112000E00020002F00D10B20BDE8FC81FB
:10A7E0000027A80701D50125E6E7344303D000245C
:10A7F00026460325E0E7064806494246401AC008B7
:10A80000012101EB0040044902F0F6FAE5E70000FF
:10A810005C450300544503004C3103002DE9FF471C
:10A82000824600F093FBA0F57F418146FF3916D0A8
:10A830003B493C4A0127891AC90807EB014600BF7A
:10A840003A467F1C4FF00008BFB202AB08214846D1
:10A8500004F05CF9040007D0072C5ED05EE043F200
:10A86000020004B0BDE8F087039D03232A1DA91D43
:10A8700050462B60B2DF040004D00C2C37D0052CDE
:10A8800038D038E06A460821484604F0F5F858B157
:10A89000052814D002F0E6FE02463046534622A1B7
:10A8A00002F0B1FA0320DCE70198AA88808882428E
:10A8B00005D10199A81D891DFBF703FE30B14A4659
:10A8C0000821104604F09AF9044627E0082148467A
:10A8D00004F08AF948B102F0C5FE034630464A4604
:10A8E0001F4902F090FA032418E00B2416E04FF001
:10A8F000010800E000240821484604F075F940B141
:10A9000002F0B0FE034630464A46154902F07BFA93
:10A910000324B8F1000F93D100E00C242046A0E7F7
:10A920005C450300544503007064625F70656572A6
:10A930005F646174615F7074725F67657428292059
:10A9400072657475726E656420257320666F72205F
:10A95000636F6E6E5F68616E646C653A202564009B
:10A96000CC30030004488088A0F57F41FF3901D036
:10A9700006F040BC70470000402500200EB502A93B
:10A98000019100F0E3FA6A46012104F075F808B17C
:10A9900000200EBD019800780EBD00002DE9F041A9
:10A9A00007464FF6FF761048B3DF78B102F05AFE43
:10A9B00002460E480E49401AC008012101EB004032
:10A9C0000C4902F019FA0320BDE8F081064C43F26D
:10A9D0000305A41E324661883846AFDFA842F3D192
:10A9E0006088401C6080F5E7422500205C4503003C
:10A9F0005445030080300300428800EB82020C3291
:10AA00008A4201D9022070478188A1F57F42FF3A2E
:10AA100006D0018821B18068401C01D00020704719
:10AA200001207047884204D20068401C01D00120F8
:10AA300070470020704770B50C468AB0064634F85F
:10AA4000300F8DF82000000A8DF82100A0788DF8D5
:10AA50002200E0788DF82300042520216846FBF7CA
:10AA60001EFD42F64A20ADF800009DF80D00ADF83D
:10AA7000045040F002008DF80D0020798DF811008F
:10AA800008A8ADF806500290308906F5B372694601
:10AA9000FEF7CCFA0AB070BD70B592B018212D48FF
:10AAA000FBF7FDFC2B480326012506808570C57049
:10AAB000022484714471047106818472C5728473A6
:10AAC0004473047305828674C57484754475047573
:10AAD00048216846FBF7E3FC1F4800901F4801909F
:10AAE00000201C4903918DF810008821ADF8241036
:10AAF0001B498DF8080008918DF809508DF80A60FF
:10AB00000590079040F201118DF81800ADF8301053
:10AB10008DF83F408DF832008DF836008DF82C40CE
:10AB20008DF83C400E908DF841408DF83D408DF8F9
:10AB300033608DF834408DF840408DF83E406946D2
:10AB40000848FDF7A9FC002801D0FCF765F912B010
:10AB500070BD0000A027002035E202007914030038
:10AB6000202400208C22002000B585B00821034657
:10AB700004914FF6FF7204A9684605F009F908B17F
:10AB8000FCF74AF96846049904F0E4FB002801D078
:10AB9000FCF742F905B000BD3EB5027802230C4631
:10ABA000B3EB520F17D1B0F80110ADF80010C17817
:10ABB0008DF802108188ADF8041080798DF80600B8
:10ABC00002AA01A92046FCF761F8032202A96846FF
:10ABD000FBF777FC08B100203EBD01203EBD000020
:10ABE00070B50D460446142810D2FDF747F968B138
:10ABF000084904EB840001EB4000D0F80210296002
:10AC0000C188A980007AA871002070BD43F20200BB
:10AC100070BD0000142E002070B5018890B010297E
:10AC200061D1011D2C226846FBF720FC9DF8040031
:10AC30004FF6FF7603213446B1EB500F2BD004F0D2
:10AC40009FF89DF804006D4640080ED001280CD0F6
:10AC5000022820D118E00D99281D1131FBF754FF6F
:10AC600018B100BFBDF82C4015E00CAA0BA90720B5
:10AC700004F05AF80028EED10DE00D99281D491C6A
:10AC8000FFF78AFF0028EDD10CAA0BA9072004F0DA
:10AC90004BF80028F1D1BDF80000B44200EB800170
:10ACA000124820F8114000EB41000199C0F8021051
:10ACB000BDF80810C1809DF80A10017213D0BDF8CC
:10ACC0000000ADF82E000020ADF83040084E8DF8A1
:10ACD0002C000BAD044600BF56F8241028468847C8
:10ACE000641C022CF8D310B070BD0000142E00209C
:10ACF000C82903002DE9F0414FF6FF760546B04222
:10AD000013D00B4F002400BF04EB840037F8100071
:10AD1000A84206D12046FDF7B1F810B12046BDE8A3
:10AD2000F081641CA4B2142CEED33046F7E7000087
:10AD3000142E00202DE9F043CFB00E460746082917
:10AD400003D907204FB0BDE8F08317B30EB35020EE
:10AD50004D90E846CDF830D1B82114A8FBF79FFB01
:10AD6000002043AA0DF15001C0EBC00303EB001318
:10AD70000B4442F82030401C0828F5D32448254ACB
:10AD80000024801AC0080222C14602EB0045884612
:10AD900036E00022114610466FDFD3E750216846A7
:10ADA000FBF77DFB37F814004DAB4BAA072103F0EE
:10ADB000EFFF052810D007280ED09DF8110040089D
:10ADC00012D0012810D037F814202846124902F07A
:10ADD00013F843F20220B5E737F8142028460F494C
:10ADE00002F00AF80520ADE7C4EBC40000EB041143
:10ADF00001EB0800172209F10101FBF737FB641C86
:10AE0000B442CBD3F2B2002143A86FDF9AE700002F
:10AE10006445030054450300C43103004C32030071
:10AE20003EB50C46054603F0ABFF0BE0BDF8000055
:10AE3000A04207D02846029900F00EF810B1BDF8E4
:10AE400000003EBD01AA6946072003F06DFF0028FF
:10AE5000ECD14FF6FF703EBD2DE9F0410C460546A2
:10AE600000F1110701F111061022491C401CFBF7EB
:10AE700028FB48B9681C00F087FA28B1601C00F074
:10AE800083FA08B1012400E0002431463846FBF77C
:10AE90003BFE3B780222B2EB530F0CD00321B1EB07
:10AEA000530F08D03378B2EB530F04D0B1EB530FEC
:10AEB00001D0012100E00021084201D18C4302D0E1
:10AEC0000120BDE8F0810020FBE7018811B942189C
:10AED00092780AB101207047491C0829F7D3002055
:10AEE000704710B50C460346FFF7EFFF00280AD065
:10AEF00018882188884205D10822A11C981CFBF7DC
:10AF0000E0FA08B1002010BD012010BD142804D2C1
:10AF1000024A00EB800022F810107047142E002027
:10AF200070B50546FFF7E6FE0446284603F0A8FD87
:10AF3000002808D1142C06D2034B04EB84024FF6F0
:10AF4000FF7123F8121070BD142E002010B50446B6
:10AF5000142808D2FCF792FF28B1044904EB8400BE
:10AF600031F8100010BD4FF6FF7010BD142E0020F8
:10AF70003EB5044603F004FF0EE001992046463139
:10AF8000FFF7AFFF28B9019920462A31FFF7A9FF43
:10AF900010B1BDF808003EBD6A4602A9072003F0C3
:10AFA000C3FE0028E9D14FF6FF703EBD7CB51446C4
:10AFB0000A000A49097802D015688D4203D323B1EB
:10AFC0001D688D4201D204207CBDCDE900431346AB
:10AFD0000246034804F0A4F87CBD00004C25002084
:10AFE000DC2E002070B50C4606469AB01021184899
:10AFF000FBF755FA174800252EB324B304706200FE
:10B0000031461348FBF732FA382102A81895FBF7AE
:10B0100046FA009518AB02AA21463046019504F085
:10B020007FF800280DD110AA0DF10801C0EBC00374
:10B030000B4442F82030401C0828F7D3E1B21046F8
:10B040006EDF1AB070BD0570002108466EDFF8E7AC
:10B05000DC2E00204C25002010B50A4941600A482A
:10B0600000F077FE58B902F05DFA07491C238C22E4
:10B07000087404488C39001F006800F0D0FD0020DF
:10B0800010BD0000942B0300C83300202DE9F041CF
:10B090002C4D002420B16C604FF40640BDE8F081D7
:10B0A0000879012250B1284B01280BD0254A0226ED
:10B0B0000832022821D0032829D12CE00A7103F09C
:10B0C00033FB22E05FF0000000EB800113F8211059
:10B0D000022908D0401C80B20228F5D32A706C6087
:10B0E00041F61D50DAE700EB800003F8204003EB47
:10B0F0008000406803F00AFB07E00C71968011683D
:10B1000000230122114801F063F90028C6D06C60C9
:10B1100048F20D60C2E70C480C7128304188106875
:10B1200001EB810703EB8701D1F804C0C2F800C02E
:10B130004860B2F804C0A1F808C0968003F8274020
:10B14000D8E70000F0260020F43200208C270020F1
:10B15000FEB50646887A0D4670B3E86860B30024F1
:10B1600027E0E86800EBC403002002909DF8080087
:10B1700040F002008DF80800597911B140F0080044
:10B1800001E020F0080040F010008DF8080004EB0A
:10B19000840006EB4000191D1430CDE9001033F88F
:10B1A000022B02A9304605F093FB002805D1641C50
:10B1B000E4B2A87AA042D4D80020FEBD01460348DC
:10B1C00002888A4200D0002070470000682D0020CD
:10B1D0002DE9FC5F0E008346DDE90C47C6F1000057
:10B1E00098469246814600D40846012503E000BFF8
:10B1F00090FBFAF06D1C5045FADAA84500D9454697
:10B2000024B1002E01DB780700D5641EB80702D5F3
:10B21000B8F1000F0AD0F80708D13CB1A54205D219
:10B2200020215846641EFDF727FEF6E7002E02DABD
:10B230004E462D2102E0780703D52B215846FDF715
:10B240001BFE07F0030002280BD1B8F1000F08D154
:10B250003CB1A54205D230215846641EFDF70CFED4
:10B26000F6E7CDE90047434652463146584606F0D8
:10B2700055FFBDE8FC9F000070B50D460446006810
:10B280004FF4887102F00EFA4FF49071206802F0CA
:10B2900009FA4FF49271206802F004FA4FF4A27197
:10B2A000206802F0FFF94FF4AC71206802F0FAF95F
:10B2B00020681249C0F804132068690740F307307A
:10B2C000090E002804DB00F1E02080F8001405E0FE
:10B2D00000F00F0000F1E02080F8141D206840F31A
:10B2E0000730002809DB00F01F02012191404009CE
:10B2F000800000F1E020C0F8001170BD1003420092
:10B30000024600201268530713D502F003000128FB
:10B3100002D002280CD105E0C2F383100B68801C18
:10B32000184404E00223086803EB925210440860BA
:10B33000012070470248007A002800D001207047A1
:10B34000C8330020F0B58488A518944200D822465E
:10B35000A41AC288D6189A4200D81346D21A4B882B
:10B360000788BB420CD34088834209D88888A04212
:10B3700006D3A84204D8C888904201D3B04201D96C
:10B380000020F0BD0120F0BD0021425C0AB1012087
:10B390007047491C1029F8D300207047800701D05E
:10B3A00000207047012070470A4810B5807860B1CE
:10B3B000002401E0022C06D02046FDF7B3FA641CFD
:10B3C000042CF7D310BD0324F6E7BDE81040FDF7C9
:10B3D000C9BA0000AC24002003480179C90702D093
:10B3E0000078FDF717BC7047AC24002017210180BE
:10B3F00041800021017141711B218171C171704730
:10B400002DE9FE4F2E4F984692460D00814601D001
:10B4100000260DE0684600F0BFFB6A460021484662
:10B4200003F086FA3878009E10B99DF8090098B1AB
:10B4300052463146484606F051FA0446014600227B
:10B440004846FEF723FE0D2C37D008DCA4B3082CA9
:10B4500033D00B2C09D130E00520BDE8FE8F112C34
:10B460001ED0A4F54050023827D0204602F0FAF84A
:10B470000246144814494B46401AC008012101EB0A
:10B480000040124901F0BFFC5FF00305B8F1000F66
:10B4900004D0324621464846FEF7A6FA2846DCE7A5
:10B4A0002A46F9784846FCF7CDFC5246B97848461A
:10B4B000FCF7C8FC0025E9E7FFE72546E6E70000C2
:10B4C000DC2500209C45030054450300CC3C0300D0
:10B4D00070B50E460C49154604460978FCF79AFCEF
:10B4E00000280FD0204603F0C9F900282A4631462B
:10B4F000204603D0BDE8704003F0C6B9BDE87040F7
:10B50000FEF7D2B970BD0000D425002070B5094DFA
:10B510000646A978FCF77EFC0446E9783046FCF73D
:10B5200079FC014622463046BDE870400123FFF712
:10B5300067BF0000DC250020F0B585B00546002778
:10B5400014216846FAF7ABFFA5F57F40ADF802502D
:10B55000FF3825D02846FFF719F9040022D01B48F0
:10B560001B49401AC6080B2C22D0112C1ED0A4F562
:10B57000405002380ED0204602F074F802460120F6
:10B5800000EB06402B46134901F03DFC21462846BE
:10B5900005F0AAFD10483A4681782846FCF752FC8F
:10B5A00005B0F0BD0F208DF800000BE00127F1E79A
:10B5B00010208DF80000022000EB06402A460749C3
:10B5C00001F01AFC6846FEF7DFFAE3E75445030092
:10B5D00054450300542F030030250020A82F0300FA
:10B5E0000A4602494978FCF72DBC000030250020AE
:10B5F0002DE9F041002786B080463E46FFF70EF960
:10B6000004461F481F49401AC508112C23D003DCEB
:10B61000FCB10B2C06D114E0862C1ED0A4F54050B2
:10B6200002380ED0204602F01DF80246012000EB41
:10B630000540434614A101F0E6FB2146404605F0D3
:10B6400053FD39464046FFF7CBFF06B03046BDE814
:10B65000F0810126F5E70127F3E714221A4968462D
:10B66000FAF704FF0220ADF8028000EB05404246E5
:10B6700016A101F0C1FB6846FEF786FAE1E700007B
:10B6800054450300544503006773636D5F6C6F633B
:10B69000616C5F64625F63616368655F757064615C
:10B6A000746528292072657475726E65642025732F
:10B6B00020666F7220636F6E6E5F68616E646C658A
:10B6C0003A2025640000000074290300466C617371
:10B6D000682066756C6C2E20436F756C64206E6FED
:10B6E000742073746F7265206461746120666F7278
:10B6F00020636F6E6E5F68616E646C653A202564CE
:10B7000000000000704700002DE9FF41002624489A
:10B7100000F01CFB2248001F074600F017FB214CDD
:10B720002149A06800900D6800E000986946284013
:10B7300004EB80000C30FFF7E3FD0028F5D101AAEF
:10B74000009901EA050304EB8303491CDB6842F816
:10B750002030401C00910228F2D3019800F0030031
:10B7600001280BD0022810D10198032101EB905041
:10B770000099BDF80A6001EB900005E00198BDF862
:10B780000A60C0F3831008440090384600F0DBFAEA
:10B7900008B10098A06004B03046BDE8F081000018
:10B7A00098390020803500203027002088B04FF4E1
:10B7B0008041002001F09AFB08B1FBF72DFB01F05E
:10B7C000EDF9FBF7D1FB08B1FBF726FB4A4A012153
:10B7D0004A48FBF7B9FB08B1FBF71EFB48490320B9
:10B7E000FDF7CEF908B1FBF717FB69460020FDF71E
:10B7F000DDF808B1FBF710FB9DF80000022879D0B6
:10B800005FF0000501F07CFC08B1FBF705FB01F0DF
:10B810003DFE08B1FBF700FB0024694601200094BF
:10B8200001F0C4FC08B1FBF7F7FA684601F03EFDF1
:10B8300008B1FBF7F1FA334A0A210820FBF768FB4D
:10B8400008B1FBF7E9FAFEF755FC2E480021C43099
:10B8500000F008FB08B1FBF7DFFAFBF79DF905F0F4
:10B860000DFE294851210160642141600121816060
:10B8700001730146254805F07BFC1C216846FAF758
:10B880000EFE4FF4A030CDE900404FF4F020032627
:10B8900002908DF80C601E48ADF80E408DF81040F7
:10B8A000CDE905406846FCF7FBF908B1FBF7B4FAAF
:10B8B00003F000FC17481849401AC00806EB004086
:10B8C00016A101F095FA0D4800224FF400410068DE
:10B8D000FBF778FB08B1FBF79FFA2846FBF7AAF9BC
:10B8E000FBF7F6FA01F068F90028F9D101F01CFC29
:10B8F000F6E7FFE7012585E70D7402000C29030038
:10B90000A18A0200B8270020D02C00208422002029
:10B910001F93020004460300544503004849442095
:10B920004D6F757365206578616D706C65207374FB
:10B9300061727465642E0000002360F30F031846E3
:10B9400061F3174062F31F60704770B51446828838
:10B950000E4605462088111D0144921C994201D8CB
:10B96000FE2A01D90C2070BD521C32542088FF21C0
:10B97000401C80B2208031542088401C80B220803E
:10B980008119288806F0B5FB2188084480B2208000
:10B99000AA8842B1A96841B13044FAF767FD20880E
:10B9A000A98808442080002070BD072070BD2DE9C3
:10B9B000F047C5881E1DB6FBF5F78946B6FBF5F1C5
:10B9C000044605FB176C407916686843DDF820A033
:10B9D000F718001F874200D9C61A166001E02468D4
:10B9E000491E0029FBD1A5EB0C078846B74216D8A3
:10B9F00018E004EB0C00001D09EB0803BAF1000F7E
:10BA00003A4602D00146184600E01946FAF72EFDE4
:10BA10002468F61B4FF0000CB844B54201D93746F4
:10BA200000E02F46002EE4D1BDE8F08730B5024695
:10BA300051B101F06FFA0021074C08E034F82130D1
:10BA40001568AB4202D11160002030BD491C814213
:10BA5000F4D3052030BD0000000000000EB5214ADF
:10BA6000204B12785B888AB1FF2800DBFF20FF297A
:10BA700000DBFF2100220092CDE9012342B21948E8
:10BA80004BB200211430FCF7B1FC1AE040F6FF7213
:10BA9000904200DB1046914200DB11468DF8040015
:10BAA000C0F3032040EA01108DF8050008098DF865
:10BAB00006000C48009301AB032201211430FCF76F
:10BAC00023FE00280DD008280BD0132809D01128F8
:10BAD00007D043F20141884203D0BDE80E40FBF796
