:020000040002F8
:10600000A8810020C1630200C9630200CB630200C3
:10601000CD630200CF630200D163020000000000E4
:10602000000000000000000000000000D363020038
:10603000D563020000000000D7630200D9630200AC
:1060400079660200DB6302003D6A0200E16602003D
:10605000F1660200DB630200D5650200DB6302002B
:10606000DB630200DB630200DB630200DB63020030
:10607000DB630200DB630200DB630200DB63020020
:10608000DB630200D1660200DB630200DB63020017
:10609000DB630200DB63020045670200DB63020092
:1060A000DB630200DB630200DB630200DB630200F0
:1060B000DB630200DB630200000000000000000060
:1060C000DB630200DB630200DB630200DB630200D0
:1060D000DB630200DB630200DB6302000000000000
:1060E00000000000000000000000000000000000B0
:1060F00000000000000000000000000000000000A0
:10610000000000000000000000000000000000008F
:10611000000000000000000000000000000000007F
:10612000000000000000000000000000000000006F
:10613000000000000000000000000000000000005F
:10614000000000000000000000000000000000004F
:10615000000000000000000000000000000000003F
:10616000000000000000000000000000000000002F
:10617000000000000000000000000000000000001F
:10618000000000000000000000000000000000000F
:1061900000000000000000000000000000000000FF
:1061A00000000000000000000000000000000000EF
:1061B00000000000000000000000000000000000DF
:1061C00000000000000000000000000000000000CF
:1061D00000000000000000000000000000000000BF
:1061E00000000000000000000000000000000000AF
:1061F000000000000000000000000000000000009F
:10620000DFF80CD000F07AF90048004701DC02000A
:10621000A881002030B450E8012F93B2C4892344F0
:106220008489A34228BF1B1B0489A34202BFBFF37A
:106230002F8F002007E0C3EA020340E80134002C5E
:10624000E9D14FF001000A6030BC704750E8012FDF
:10625000C2EA024240E801210029F7D1704730B478
:1062600050E8022F1FFAA2F3C488A34202BFBFF373
:106270002F8F00200DE0C48923448489A34228BFC6
:106280001B1BC2EA034340E80234002CE8D14FF064
:1062900001000A6030BC704750E8022FC2EA224277
:1062A00040E802210029F7D17047034653E8022F46
:1062B000D988B2EB324F4FF0000017BF92B241EADB
:1062C000014142EA014104E05A68B2EB324F08BF93
:1062D000012043E80212002AE8D1704730B4044696
:1062E00054E8000F0D4644E80053002BF8D1156028
:1062F00030BC704730B4044654E8000F40EA010552
:1063000044E80053002BF7D1156030BC704730B41F
:10631000044654E8000F00EA010544E80053002B4E
:10632000F7D1156030BC704730B4044654E8000F14
:1063300080EA010544E80053002BF7D1156030BC1A
:10634000704730B4044654E8000F00EB010544E800
:106350000053002BF7D1156030BC704730B40446B1
:1063600054E8000FA0EB010544E80053002BF7D1DF
:10637000156030BC704770B404464FF0000054E81C
:10638000006F0D68AE4207BF44E80023012044E8D7
:1063900000630E60002B1CBF0020F0E770BC70474C
:1063A00030B4044654E8000F88422CBF451A054615
:1063B00044E80053002BF5D1156030BC7047000055
:1063C0000648804706480047FEE7FEE7FEE7FEE78F
:1063D000FEE7FEE7FEE7FEE7FEE7FEE76567020091
:1063E000016202002DE9F05F0546002092469B46BF
:1063F00088460646814640241BE0284641464746DB
:10640000224600F06BF853465A46C01A914110D309
:1064100011461846224600F016F82D1A67EB0108BF
:106420004F4622460120002100F00DF817EB00092D
:106430004E41201EA4F10104DFDC484631462A46C5
:106440004346BDE8F09F202A04DB203A00FA02F11F
:10645000002070479140C2F1200320FA03F3194352
:1064600090407047004870470067030040EA01030E
:106470009B0703D009E008C9121F08C0042AFAD2FA
:1064800003E011F8013B00F8013B521EF9D27047BE
:10649000D2B201E000F8012B491EFBD27047002266
:1064A000F6E710B513460A4604461946FFF7F0FF13
:1064B000204610BD421C10F8011B0029FBD1801A98
:1064C000704730B504460020034600E05B1C934251
:1064D00003D2E05CCD5C401BF8D030BD202A04DB49
:1064E000203A21FA02F00021704721FA02F3D0404D
:1064F000C2F120029140084319467047064C074DEF
:1065000006E0E06840F0010394E807009847103483
:10651000AC42F6D3FFF778FEB07D0300D07D0300D8
:1065200070B58C1810F8015B15F0070301D110F855
:10653000013B2A1106D110F8012B03E010F8016B82
:1065400001F8016B5B1EF9D12B0705D40023521E05
:106550000DD401F8013BFAE710F8013BCB1A921C6D
:1065600003E013F8015B01F8015B521EF9D5A1426B
:10657000D8D3002070BD000070B5084C0020134631
:10658000207007482C250A460068DBB22946001D0A
:1065900009F00AFF21780029FCD070BDC424002036
:1065A000C0240020F8B5094C002613462670084880
:1065B0002C250A460068DBB22946001D009609F02A
:1065C0000BFF21780029FCD0F8BD0000C424002076
:1065D000C02400202DE9F8430025DFF894804FF413
:1065E000807601242F460095304608F013FD38B11F
:1065F000D8F80403204203D0304608F001FD2543BB
:10660000361D64007F1CB6B2082FEDD34FF4BE7464
:10661000204608F0FFFC48B1204608F0F1FC45F0A8
:1066200000456A460121002008F0A4FC15F0FF0F88
:1066300016D0012600242E420ED008EB8401D1F89A
:106640001005D1F81015C0F304200A4AC1F3014126
:1066500052F8242002B190477600641C082CEAD33B
:10666000002D02DA68460CF0EDFCBDE8F88300006E
:10667000006000409C38002070B54FF480763046B2
:1066800007F052FF114CB50560B1304607F053FFDB
:106690000120C5F80803607920B9012060712168E4
:1066A000002088474FF48276304607F03DFF0028EF
:1066B0000AD0304607F03FFF0220C5F808032168E2
:1066C000BDE870400120084770BD0000602D00202B
:1066D00002490248091F096800680847F02D002098
:1066E000014902480EF0C8BC60390020003000406B
:1066F000F8B54FF040200446114E4FF48C7109F06C
:10670000A8FA00281AD00025C4F81851D4F81801A6
:106710000090F07F3446FF2806D0A17F11B108F029
:106720003FFC01E008F059FC65772572D4E90021AF
:1067300001B004F10800BDE8F0401047F8BD0000CA
:106740009C39002010B50021054A084600F0D0FB16
:10675000002803D0BDE8104000F0BEBB10BD000013
:10676000AD720200F0B5A449A4484FF080540B6804
:10677000D4F830210078D4F83411551CC0F303103C
:1067800006D0944601270026BCF1060F03D00AE08C
:1067900003F0FF0CF6E7B4F82453DFF864C2C5F346
:1067A0000425CCF80050DDB2062D06D1032804D113
:1067B000DFF854C2934DCCF87450551C04D0944665
:1067C000BCF1060F03D00AE003F0FF0CF8E7D4F8A1
:1067D0004452DFF838C2C5F34235CCF80050DDB280
:1067E000062D08D1032806D1894DD5F800C02CF01C
:1067F000807CC5F800C0551C04D09446BCF1060F3F
:1068000003D00BE003F0FF0CF8E74FF08045C5F82C
:106810000C61C5F810617D4D2D1F2E60DDB2062D77
:1068200008D1032806D1DFF8E4C103250CF1640C7C
:10683000CCF80050DDB2062D10D103280ED1DFF8C0
:10684000D4C10525CCF80050724D78352F60714DBC
:1068500008352E600CF104063F253560551C04D028
:1068600016460D46062E03D05BE0DEB20546F9E77C
:10687000ED1E012D55D9684D2D68684E3560664D69
:106880002D1D2D68361D3560634D08352D68361D6C
:106890003560614D0C352D68361D35605E4D103507
:1068A0002D68361D35605C4D14352D68361D3560FC
:1068B000594D18352D68594E20363560564D1C35CA
:1068C0002D68361D3560544D20352D68361D3560D8
:1068D000514D24352D68361D35604F4D28352D68B6
:1068E000361D35604C4D2C352D68361D35604A4DB2
:1068F00030352D68494E40363560474D34352D686A
:10690000361D3560444D38352D68361D3560424D95
:106910003C352D68361D35603F4D40352D68361DA0
:106920003560551C03D01646062E02D007E0DEB2B5
:10693000FAE7D4F858523A4E05F04F053560551C29
:1069400003D01346062B02D008E0DBB2FAE7354845
:106950000368DB0702D06FF001030360062A07D14A
:10696000C91E022904D93048016841F480610160E0
:1069700027487438016841F470010160BFF34F8FFC
:10698000BFF36F8FD4E94C104FF01022062907D1C6
:10699000C01E032804D9D2F808021C491C31086023
:1069A000D2F80002002803DBD2F8040200281FDA24
:1069B000012009F099FF1521C2F800121B48036855
:1069C000002BFCD0C2F8041201680029FCD0002082
:1069D00009F08AFFBFF34F8F0D48F0380168144A61
:1069E00001F4E06111430160BFF34F8F00BFFDE789
:1069F000114910480860F0BDE00F00F0E80F00F00A
:106A0000403501400DF0ADBA00C007403C050040E4
:106A1000FCED00E0105600400404001020C50040CA
:106A2000E40E0040000400403C17004000E4014038
:106A30000400FA050090D003B02E00200148006841
:106A400000470000682D002002E008C8121F08C19E
:106A5000002AFAD170477047002001E001C1121FDF
:106A6000002AFBD1704700000121202803DA814071
:106A70000548014003E0402802DA2038814009B18E
:106A80000120704700207047FC06FFBD2DE9F84348
:106A9000804643F2020659B969460BF069FBB042E1
:106AA00002D008B100F018FA9DF80000800744D425
:106AB000002140460BF066FB05003ED0112D3CD076
:106AC0001F482049401AC708022000EB07440D2D3B
:106AD0000AD00B2D1DD0B5421FD11B49204642467E
:106AE000BDE8F84308F09CBC20464246174908F030
:106AF00097FC1321404676DF00281ED009F0CAF823
:106B0000024601B020464346BDE8F04310A108F01C
:106B10008EBC204642461C49E2E7284609F0BAF8F6
:106B20000246012000EB0740434618A108F07FFC15
:106B30002846BDE8F84300F0CFB9BDE8F88300006F
:106B4000187E0300E07D0300746F0300006F0300F4
:106B500073645F626C655F6761705F646973636FC4
:106B60006E6E65637428292072657475726E656433
:106B7000202573206F6E20636F6E6E5F68616E6498
:106B80006C652025642E0000C06F0300417373659F
:106B90007274696E672E20706D5F636F6E6E5F73C7
:106BA000656375726528292072657475726E6564F7
:106BB000202573206F6E20636F6E6E5F68616E6458
:106BC0006C652025642E000010B560B159B10278C3
:106BD0000B785208B2EB530F05D10622401C491C1A
:106BE000FFF76FFC08B1002010BD012010BD800729
:106BF00001D00020704701207047C3688B4206D83F
:106C000011440069491E814201D8012070470020CB
:106C1000704790F82400012801D01F207047EE2013
:106C2000704710B501220221002002F093FF08B145
:106C3000072810D107220221012002F08BFF08B1A2
:106C4000072808D100210A22084602F083FF08B174
:106C5000072800D1002010BD10B5ACB0AC216846AB
:106C6000FFF71DFC02218DF80010012405208DF88E
:106C700002408DF803001A480590ADF8104000F569
:106C8000CB7009903C2269461648FFF7EFFB0020C5
:106C90008DF879408DF87A408DF87B002090219016
:106CA0002820229040F6B8308DF87C4023908DF853
:106CB0007D40A020249044F2506025900A482990FD
:106CC0000A482A9069460A4801F022FE08B100F0FD
:106CD00003F90121064801F016FE2CB010BD00009A
:106CE0007E22002010340020010903000D890200DB
:106CF000CC2F002010B560B10D480E49401AC008D5
:106D0000032101EB00400CA108F086FB0CF0F0F829
:106D100006E001200EF014FF03210B4801F0D9FE1C
:106D2000002803D0BDE8104000F0D6B810BD000028
:106D3000A07E0300E07D0300457261736520626FF1
:106D40006E64732100000000CC2F002070B58CB061
:106D500015460E4600236C46C3F10F01415CE15419
:106D60005B1C102BF8D30D2104F11000FFF797FBEB
:106D70000020C0F10F02315C2244401C1174032832
:106D8000F7D3684646DF0020C0F10F01214491F897
:106D900020102954401C0328F6D30CB070BD0220EB
:106DA00002F0E2BD0149C97802F020B9EC2C0020C4
:106DB00070B50024064D06E06868012110F8340023
:106DC00008F0F0FF641C28788442F5D3002070BDE1
:106DD000802D0020F8B516460C4605460A2A01D239
:106DE0000720F8BD09F0D8F818B909F09BF8002879
:106DF000F7D1134F102113487D603C70BE60FFF740
:106E00004EFB0020C7E904000F4E0DE005EBC40067
:106E10003168009181788DF8011000780B4A69463D
:106E200009F010F80028DCD1641EE4B2EED2BDE80F
:106E3000F84005480021064A001D00F0E5B80000B2
:106E4000802D0020C03900206463030091BD020042
:106E500011AB020072B608F089FB00BF08F0C0F960
:106E60000028FBD111481249401AC408012000EB48
:106E7000044010A108F0D0FA11480068C00700D003
:106E800000BE022000EB04400EA108F0C5FABFF3DB
:106E90004F8F0B48E43801680E4A01F4E06111435A
:106EA0000160BFF34F8F00BFFDE70000A07E03002D
:106EB000E07D0300466174616C206572726F720040
:106EC000F0ED00E053797374656D2072657365743D
:106ED000000000000400FA050EB500210091CDE984
:106EE00001106A4644F20100FFF7B4FF0EBD000036
:106EF0002DE9F84F254C8146924660880E46814226
:106F000041D800274FF6FF788DF80070684600F0F2
:106F100005F922786078A188884201DA401C00E0F7
:106F20000020C0B2904204D19DF8000000F01AF990
:106F300027E065786078884201DA401C00E0002094
:106F400060709DF8000000F00DF9454519D0A0686B
:106F5000B9F1000F40F835A00DD066B16188E06846
:106F6000324605FB01004946FFF780FAA06800EBB6
:106F7000C500868002E000EBC50087800020BDE8E8
:106F8000F88F0420FBE70920F9E70000B82D002066
:106F900010B50E4C03E0401C00E00020207020786B
:106FA0006178814210D022786188E068A36802FB92
:106FB000010003EBC20153F8322089889047207802
:106FC000A1888842E9DAE6E710BD0000B82D00206C
:106FD00030B5CB0008339DB293074FF0000401D0C9
:106FE000072030BD044B9A602A44DA605C701C7044
:106FF00058809980002030BDB82D0020014803F052
:10700000EEBD0000D02D002010B55AB100684FF041
:10701000FF3401294261C0E9024400D0002101612E
:10702000002010BD072010BD38B511480823582294
:10703000416800910F49006807F021F8002815D138
:107040000D4A69460D4803F0CFFD04000ED1012121
:107050000A4803F044FE0123094A1946074803F091
:1070600096FD0649012008390870204638BD000009
:107070006C630300E0390020553A0300D02D002056
:10708000FFFF7F00F8B50446002617460D468DF831
:107090000060684600F042F8D4E90201C04370EA9B
:1070A000010005D09DF8000000F05CF80020F8BD5C
:1070B00004F040FE40197141C4E902019DF800004E
:1070C00000F050F8A761206900B125612146BDE8B4
:1070D000F84000200DF028BF38B5044600208DF898
:1070E0000000684600F01AF8D4E90201C04370EAD3
:1070F00001000DD04FF0FF30C4E902009DF8000000
:1071000000F030F82146BDE8384001200DF00CBFFA
:107110009DF8000000F026F8002038BD30B5EFF3F0
:10712000108172B60D4A9468012324B103700029BE
:1071300000D162B630BD93604FF0E023D3F88051A8
:10714000074C25401560C3F88041D3F88441546052
:107150005A17C3F8842100220270E8E7383A002069
:10716000FC06FFBD0B498A68002A11D000280FD108
:10717000EFF3108072B60B684FF0E022C2F80031D6
:107180004B68C2F8043100228A60002800D162B640
:1071900070470000383A00202DE9F04106460868A3
:1071A0000C46411C4FF0A0474FF0010506D005FAF0
:1071B00000F1C7F80815206807F0ACFE6068411CB4
:1071C00002D0002107F08AFE3168A069C1F82405C9
:1071D000607D227D31681043C1F86C05D4E900124E
:1071E0003068C0F81425C0F80C15207D012815D191
:1071F000A068411C02D0002107F070FEE068411C2D
:1072000005D08540C7F80855E06807F083FED4E94B
:1072100002123068C0F80825C0F81015BDE8F081EA
:107220002DE9F041064608680C46411C4FF0A04786
:107230004FF0010506D005FA00F1C7F808152068DF
:1072400007F072FE6068411C02D0002107F04FFE7B
:107250003168A069C1F82405607D217D326808434A
:10726000C2F86C05D4E900123068C0F80C15C0F8FB
:107270001425207D012815D1A068411C02D00021D1
:1072800007F035FEE068411C05D08540C7F8085579
:10729000E06807F049FED4E902123068C0F808251A
:1072A000C0F81015BDE8F08105F000BE08F03CBC48
:1072B0002DE9F047814605884A484FF000088AB01A
:1072C00001784246284601F0A9FE99F805004007DA
:1072D00001D4002176E005F58077B8B205AB012234
:1072E00007210AF0BDF904003F48404A4FF0010170
:1072F000A0EB02004FEAD00001EB00460AD0204686
:1073000008F0C8FC024630462B46394908F08FF891
:10731000214629E0284605F0B7FA4FF6FF710446EA
:1073200088422BD18A46069805F018FA0446504543
:1073300010D00146284605F087FA2846FFF732FDAF
:10734000E0B928460CF0C4FE2846FFF72BFD0028C4
:10735000BFD013E00AF05AFB0446504508D130462E
:1073600024A108F059F8042128460CF0DFFEB0E70C
:107370000146284605F068FA4FF00108B8B22246E7
:1073800007210AF0E5F907001BD0862F1ED008F070
:1073900081FC024630462B462349009408F04FF802
:1073A000394628460CF0C2FE0021484609F0E6FFA7
:1073B000B8F1000F02D0204605F050FA0AB0BDE83F
:1073C000F0870121484609F0D9FFF7E71422174951
:1073D0006846FFF74BF8ADF80250684603F0A0FE90
:1073E000EFE70000EC2C0020207E0300E07D03008E
:1073F000BC720300436F756C64206E6F7420616C07
:107400006C6F63617465206E657720706565725F6F
:10741000696420666F7220696E636F6D696E6720A4
:10742000626F6E642E000000D8730300C462030014
:107430000823F722012100F0E7B80023F7220121F9
:1074400000F0E2B8F8B5274827490068C865084643
:1074500000F0F2F8B0BB0024234DFF208DF80000AF
:1074600026466A460821284600F048F860B99DF88B
:10747000000000F0600041098DF80010A5F85410DC
:10748000022906D0032904D0641CE4B2052CE8D3F9
:1074900018E0154800F028F9134D8DF8006000241D
:1074A0006A460921284600F029F89DF8001001F0ED
:1074B0003F01014312D0641CE4B2032CF0D30A480C
:1074C000FFF7B6FF09480A49BDE8F840401AC0086E
:1074D000032101EB004007A107F09EBF0248FFF720
:1074E000ACFFEFE7C024002068340020A07E03003A
:1074F000E07D030041572E0A000000002DE9F7430C
:10750000DFF8708082B00026914688F80060012084
:10751000194F0346009003AA4921386807F0BCF8C8
:107520004FEA000598F800000028FBD013481449E2
:10753000401AC008032101EB00441DB120462A4631
:1075400010A111E088F80060386849214A460123FB
:10755000001D08F029FF054698F800000028FBD020
:1075600025B120462A460BA107F05AFF05B0284650
:10757000BDE8F083C4240020C0240020A07E0300C6
:10758000E07D03005458204572726F723A202564E2
:10759000000000005258204572726F723A20256434
:1075A000000000007CB5104D002028708DF80410FC
:1075B00000900E488DF80520022301AA4921006899
:1075C00007F06AF8044628780028FCD054B108482F
:1075D00008492246401AC008032101EB004006A1D9
:1075E00007F01EFF20467CBDC4240020C0240020DC
:1075F000A07E0300E07D03005458204572726F7234
:107600003A20256400000000F8B514461F460D46D8
:1076100006466A46FFF772FF00280BD19DF800006E
:1076200007EA0402A04302438DF8002029463046B1
:10763000FFF7B8FFF8BD00002DE9F8438046174872
:107640001749FF26401A0025C00803218DF8006065
:1076500001EB00446A460A214046FFF74FFF074608
:1076600020463A460FA107F0DBFE0FB99DF80060F7
:10767000492E11D06D1CEDB2204632460EA107F006
:10768000CFFE052DE6D32046324613A107F0C8FEF3
:107690004FF0FF30BDE8F8830020FBE7A07E030039
:1076A000E07D0300726561642073746174757320FA
:1076B0003D2025640A0000007265616420636869EA
:1076C000706964206572726F722E206368697069D8
:1076D00064203D2025640A00636869706964203D68
:1076E0002025640A000000000021A0F85A1004229E
:1076F000828190228282A0F856103022C28708220E
:10770000A0F840200F22428080230380A0F84E1072
:10771000C184A0F84C1002234383A0F84830428271
:10772000A02202830122C2828283A0F84410AFF318
:10773000008010B50446B0F85400032806D194F830
:1077400056307F220D212046FFF75EFF608A3828E1
:107750000BD90F23F02200212046FFF755FF80238D
:107760007F220C212046FFF74FFFA37CC02202217D
:107770002046FFF749FF94F844307F220B21204632
:10778000FFF742FF237BF82201212046FFF73CFF51
:10779000237D0F2203212046FFF736FF94F83E3069
:1077A000CF2207212046FFF72FFF94F84030F02228
:1077B00007212046FFF728FFA378F022002120466A
:1077C000FFF722FF23780F2200212046FFF71CFF3E
:1077D00094F84E30F7220C212046FFF715FF94F85D
:1077E0002630F92205212046FFF70EFF94F84C3091
:1077F000BF220C212046FFF707FFA37EFD220421B4
:107800002046FFF701FF2023DF220B212046FFF750
:10781000FBFE94F84830E1220B212046FFF7F4FEEE
:10782000237E032204212046FFF7EEFEA37DF022F3
:1078300003212046FFF7E8FE237F2046FE22BDE815
:1078400010400421FFF7E0BE6FF0040108B10422EC
:1078500000E00022082004F0C9BC00001548164BC7
:107860000268106D11698068091A00EB40005943E5
:10787000C00091FBF0F00A2190FBF1F301FB130330
:10788000002805DB052B0ADB90FBF1F0213009E035
:1078900013F1050F03DC90FBF1F01F3002E090FBC9
:1078A000F1F020301F2801DD203800E02030507238
:1078B00070470000E4250020A086010008B50020E4
:1078C0008DF8000001226946642004F039FC00288C
:1078D00004D19DF80000000601D5002008BD01205C
:1078E00008BD000038B500208DF80000032000F02E
:1078F0009DFB104C6FF0FF012068006D407B40F055
:1079000080021C2004F072FC206801226946006D90
:10791000807B8DF800001D2004F082FCFF208DF894
:107920000000012269461F2004F07AFC012000F0CB
:107930006BFB38BDE42500202DE9FC47614C002796
:10794000009720683D46C826016D8968016100F0F6
:10795000BBFB20686FF00701006D90F83A205020C3
:1079600004F044FC4FF47A6000F03AFD032000F08C
:107970005DFB6FF0200A20225146172004F036FCF0
:1079800080226FF080011C2004F030FC0122694647
:10799000082004F0D5FB9DF800006FF0040900F00A
:1079A000040804224946082004F020FC20686FF0F7
:1079B0007F01006D427B1C2004F018FC206801222E
:1079C0006946006D807B8DF800001D2004F028FCC6
:1079D00020680222006D10F8341F8DF800104078E6
:1079E0008DF8010069461E2004F01AFC2068006D25
:1079F00090F8370030B18DF800000122694621204F
:107A000004F00EFC2068006D816859B12E4AB2FB6B
:107A1000F1F110F8372F8078891A081A083804D540
:107A2000002005E00120BDE8FC87FF2800DDFF20E5
:107A30008DF8000001226946192004F0F1FB0120B5
:107A400000F0E2FA142004F01FFC012269463F20F6
:107A500004F076FB9DF8000000074FF00A0019D0F3
:107A6000761E04F011FC002EEFD1CFB1022201A945
:107A70002420019504F064FB9DF8040001029DF8A8
:107A80000500084309D01149B1FBF0F021680861F5
:107A9000002406E004F0F8FBE8E720680561F7E75A
:107AA000012400225146172004F0A0FB424649461B
:107AB000082004F09BFB41F2680000F091FC204696
:107AC000B1E70000E425002080A9030000983A00F7
:107AD000704708B500208DF80000012269463F205C
:107AE00004F02EFB9DF8000008BD38B500208DF88D
:107AF0000000044601226946022004F021FB9DF8A3
:107B00000000810600D50124410700D50224810729
:107B100000D50324C10700D00424010700D50524A3
:107B2000C00600D50624204638BD00002DE9FC41E2
:107B3000002000908DF8040000F0C6FA012000F04B
:107B40001CFB18226FF07801502004F04FFB01223B
:107B500001A94F2004F0F4FA01226946502004F0F4
:107B6000EFFA9DF800006FF0070800F00705052206
:107B70004146502004F03AFB052000F044FB04008D
:107B800038D46FF00C060C2231464F2004F02EFB47
:107B90000122571F39464F2004F028FB032004F030
:107BA00073FB002239464F2004F020FB002000F038
:107BB000E4FA9DF8042031464F2004F017FB2A46D2
:107BC0004146502004F012FB02226946512004F085
:107BD000B7FA9DF800009DF8011000F0030041EA9B
:107BE000002005494843C4EB8421B0FBF1F0034970
:107BF00009684861BDE8FC8170580A00E42500204E
:107C00008AB20146422004F09BBA10B5312100200F
:107C100000F0C7FA4121332000F0C3FA7721BDE814
:107C20001040432000F0BDBA38B50020009000F0AD
:107C30004BFA012000F0A1FA00226FF078015020E9
:107C400004F0D4FA0122541F21464F2004F0CEFA4A
:107C5000022004F019FB002221464F2004F0C6FA4E
:107C600002226946512004F06BFA9DF800009DF84D
:107C7000011000F0030041EA002041F2D47110FB32
:107C800001F0A10DB0FBF1F0074941F294129042CE
:107C90000968C86103D840F6B832904200D2CA6180
:107CA000002000F06AFA38BDE42500206FF00101E1
:107CB00028B1032805D10122452004F097BA0022FB
:107CC000FAE77047012000F09FB900007CB5002161
:107CD000494C8DF800108DF8041022686FF03805BB
:107CE00020B101283AD0022836D15EE090780028F1
:107CF0004FF0000005D000F081F80320FFF7D6FF19
:107D00002AE0FFF7D3FF2068416C0879CA78800029
:107D1000897840EA42000843C006020E294639200D
:107D200004F064FA20680122406CC179407941EA8C
:107D3000C0108DF800006946332004F071FA206805
:107D40000122406C017A807941EAC0108DF804006C
:107D500001A9362004F064FA00207CBD906C017902
:107D6000C2788900807841EA42010143CAB26FF0CB
:107D70000701392004F03AFA20680122806CC179A9
:107D8000407941EAC0108DF800006946342004F0C3
:107D900047FA20680122806C017A807941EAC0109C
:107DA0008DF8040001A93720D4E7D16C0879CA788E
:107DB0008000897840EA42000843C006020E294646
:107DC0003A2004F013FA20680122C06CC17940798E
:107DD00041EAC0108DF800006946352004F020FA11
:107DE00020680122C06C017A807941EAC0108DF8C8
:107DF000040001A93820ADE7E425002008490968FE
:107E000030B1012808D0022801D10648C864704763
:107E1000044812384864704702480938886470473B
:107E2000E42500201625002008B500208DF800006C
:107E300001226946022004F083F904226FF00C014C
:107E4000472004F0D3F919226FF03F01032004F01A
:107E5000CDF908BD08B500208DF800000122694663
:107E6000022004F06DF908BD08B500208DF800006F
:107E7000012269463F2004F063F99DF8000000F0FC
:107E80000F01082900D1002008BD000038B50020EE
:107E90008DF800000822D143452004F0A7F9802284
:107EA000D143702004F0A2F930226FF07001452018
:107EB00004F09CF9012000F086F90022111F7220C5
:107EC00004F094F9002000F07EF9234C2068006D46
:107ED00090F8360030B18DF800000122694620206C
:107EE00004F09EF92068006D90F8392022B16FF0FF
:107EF0000F011B2004F07AF92168086D8268B2F541
:107F0000E16F01D2154A00E0154A4FF47A73B2FBD3
:107F1000F3F2036B5A4349F64043B2FBF3F2D2B299
:107F20008273086D7F2A01D97F21817341F2680035
:107F300000F056FA1022D1432C2004F057F92022E9
:107F4000D1432C2004F052F9022000F0BDF93F216A
:107F5000322000F0EFF838BDE4250020009E1B0021
:107F600000611E0038B5274C002000902068006D8D
:107F700090F83A2022B16FF00701502004F036F952
:107F80002068006D90F83A0000F03DF9040034D408
:107F9000012000F0F2F820226FF07801502004F068
:107FA00025F90122551F29464F2004F01FF903200F
:107FB00004F06AF9002229464F2004F017F9022242
:107FC0006946512004F0BCF8002000F0D6F89DF876
:107FD00000009DF8011000F0030041EA002040F687
:107FE0008811A0F5007010FB01F0641CC4EB842123
:107FF00090FBF1F00F301F2801D3012038BD002085
:1080000038BD0000E425002008B500218DF80010DF
:1080100008B1012000E002208DF80000012269462D
:10802000092004F0FDF8FFF754FD08BD254910B5FF
:108030000A686FF00304062842D2DFE800F0030963
:10804000121B283200201071BDE8104000F03CB82F
:1080500001201071022000F037F90020FFF7F4FB37
:1080600024E00220107100F02FF90120FFF7ECFB53
:10807000002206E003201071106D0078FFF7E4FB8A
:1080800002222146082004F0B1F8012014E0042067
:108090001071012000F018F90120FFF7D5FB012233
:1080A00005E005201071022000F00EF900222146A3
:1080B000082004F09BF80020BDE8104000F086B9CD
:1080C00010BD0000E425002038B5194900202824FF
:1080D0000968087101208DF8000000F04EF80322B5
:1080E000D11F082004F082F801226946092004F01B
:1080F00097F8002000F041F8012269463F2004F083
:108100001FF89DF80000000710D00220641E04F044
:10811000BBF8002CF0D14022D4432146462004F085
:1081200065F800222146462004F060F838BD0000C2
:10813000E425002033B581B000200C468DF8000006
:1081400002466FF0800529464A2004F04FF874B1CA
:1081500044F080008DF80000012269464C2004F0B4
:108160005FF8012201A94D2004F05AF83EBD00221B
:1081700029464C2004F03AF83EBD10B56FF00401DA
:1081800048B10422452004F031F8BDE810404FF416
:10819000FA7004F0B7B80022BDE81040452004F0A2
:1081A00025B830B5C1B00D4604464FF4807168461D
:1081B000FEF775F9291B491C8AB26946204603F06F
:1081C000BFFF41B030BD08B500218DF8001018B1D7
:1081D0007D208DF8000001E08DF800100122694635
:1081E0005E2004F01DF808BD08B500208DF80000E1
:1081F00001226946104603F0A3FF9DF8000000F03D
:108200000800C00808BD082815D2DFE800F0040601
:10821000080A0C0E1012012070470220704704203B
:10822000704705207047082070470A2070471420C7
:108230007047282070474FF0FF30704738B5002056
:108240008DF8000009486FF00F010068B0F8404059
:108250002C20C4F3072203F0C9FF8DF8004001224F
:1082600069462D2003F0DCFF38BD0000E425002026
:1082700008B5002000900C48F0210068B0F84000DC
:1082800001EA5012A0EB9001C1F303231A438DF8C9
:10829000002040088DF801008DF802100322694685
:1082A0002E2003F0BDFF08BDE4250020054901B5DF
:1082B00009689DF80000012208626946072003F062
:1082C000AFFF08BDE42500206FF0030138B101289D
:1082D00007D0022807D10222462003F087BF0122DF
:1082E000FAE70022F8E7704708B500200090074839
:1082F00002220068B0F84000010A8DF800108DF8E5
:1083000001006946402003F08BFF08BDE4250020F2
:108310008AB20146422003F083BF10B50146002017
:1083200000F040F80021012000F03CF80F21BDE8EA
:108330001040002000F026B86FF0100108B10022B4
:1083400000E01022032003F051BF6FF0040108B1D8
:10835000042200E00022312003F048BF8AB2014627
:10836000322003F05DBF10B50446FFF747FD2046FD
:10837000BDE81040FFF7AABC02466FF03F015A204B
:1083800003F034BFC3074FF0120202EB500003D0DA
:108390000A466FF00F0103E009070A0E6FF0F001C3
:1083A00003F024BF13B50A30C0B2012201A903F0C3
:1083B00037FF1CBD10B50020FFF7D5FF0120FFF7E8
:1083C000D2FFBDE810400220FFF7CDBF6FF04001A3
:1083D000012803D000224E2003F008BF4022FAE714
:1083E000002240F67A51884224D940F6D86188426A
:1083F00001D810221EE041F20401884201D8202257
:1084000018E041F2FE01884201D8302212E041F228
:108410005C21884201D840220CE041F2243188429C
:1084200001D8502206E041F28241884201D8602200
:1084300000E070226FF070014F2003F0D7BE70B5DE
:10844000044690B0087B0D468DF83800202105A821
:10845000FEF725F842F61920ADF814000120ADF81A
:108460001800ADF81A000EA80790617C9DF8210055
:10847000A21D61F3041040F002008DF82100A87BDA
:108480008DF82700687B8DF82500A08805A901F0EC
:10849000F1FD00281CD1A968E1B10FA801F0E8F9AD
:1084A000064614216846FDF7FAFF42F60810ADF8BB
:1084B0000000E87B8DF806000FA8ADF80A60ADF863
:1084C0000E600490E08804F10E02694602F0CAFAD8
:1084D00010B070BD0020E081FAE7000010B50E4931
:1084E0000E480BF05EFEC1B24FF6FE720C4800F073
:1084F0001BFC00280FD011280DD013280BD00F28FB
:1085000009D0082807D043F20141884203D0BDE8D2
:108510001040FEF7E1BC10BD003400208422002092
:10852000982F00200A4601461046AEDF704710B56E
:10853000B2B0C8216846FDF7B2FF002400F062F82F
:108540005A226846A52102550319A41C5970C82C4B
:10855000F9D301460023C8222C2000F040F800285F
:1085600002DB322002F038F832B010BD08B50AA0A4
:1085700000680090142002F02FF8002302226946C0
:108580002C2000F02CF8142002F026F800F03AF825
:108590001E2002F021F808BD5AA500001CB50446B3
:1085A0000E208DF80000C0438DF8010002208DF8E8
:1085B000020088218DF804008DF803108DF8051055
:1085C000002306226946582000F009F8002805DB40
:1085D00001231A462146582000F001F81CBD10B5B1
:1085E00013B1012B07D103E092B2FDF7DBFF02E0EC
:1085F00092B2FDF7C1FF002802DA4FF0FF3010BD44
:10860000002010BD70B5192006F07AFC4FF0A04490
:108610004FF00075C4F80855142004F5A16401F06A
:10862000DBFF6560142001F0D7FF2560BDE87040D6
:10863000142001F0D1BF70B51500044609D0002008
:10864000286034B1206820B1A079800703D00720CA
:1086500070BD0E2070BD084600F048FCC0B2142862
:1086600004D02179814203D8042070BD052070BD5B
:10867000E288216800FB02102860002070BD2DE90F
:10868000FC47002517880646158090F82D001446F3
:10869000894630B13A462146484600F0E5FC051EC1
:1086A00009D1B0784FF00C0A18B32088C846001DD5
:1086B000B84202D95046BDE8FC87684679DF0028F9
:1086C000F9D12088032108F8001020881921401CC6
:1086D00080B2208008F800102088401C80B22080E2
:1086E00000EB0801BDF800000DF0A7F82188084450
:1086F0002080F0780222C8B1218896F9033001F178
:10870000030C4846BC45D5D8425421884FF0010C93
:10871000491C89B2218000F801C02188491C89B216
:10872000218009F801302088401C20807068B8B191
:10873000218890F9003001F1030C4846BC45B9D8B6
:10874000425421880A22491C89B22180425421883E
:10875000491C89B2218009F801302088401C208002
:10876000308950B1CDE900474B460622022106F17F
:1087700008000DF05FF9051E9DD1308A50B1CDE99A
:1087800000474B460722032106F110000DF052F975
:10879000051E90D1308B50B1CDE900474B461522D4
:1087A000142106F118000DF045F9051E83D1306A39
:1087B00030B13B462246494601F0C4FD051EDBD1DF
:1087C000706A30B13B462246494605F033FB051E30
:1087D000D2D196F82C0038B13B4622464946304665
:1087E0000BF014FE051EC7D1307838B13B46224647
:1087F0004946304605F0ACFB051EBDD128465AE778
:1088000018B504460020ADF8000013466A4620461D
:1088100000F006F8002802D0BDF80000204418BD82
:1088200070B5E0B1DAB1002402E0045D2C44A4B2DA
:10883000651C8D4206D21688A642F6D806197678AF
:108840009E42F2D18C420AD2A31C005D9BB200B1C1
:10885000401E0004000C02D01C188C4201D90020DC
:1088600070BD138070BD7FB516460D46040048D01C
:108870002078F0B355EA060043D000200090019024
:1088800002900390A5B1D4F82004016804F15500CA
:10889000814200D1EE3000902046FEF7BAF9ADF8E3
:1088A0000400284601AA0099FFF7E9FE002824D118
:1088B000A6B1D4F82004816804F23120814200D1AD
:1088C000EE3002902046FEF7A4F9ADF80C003046D9
:1088D00003AA0299FFF7D3FE00280ED19DE80F00EE
:1088E00004F5826585E80F002946002204F1540052
:1088F00000E004E0C4F8201472DF04B070BD08206A
:10890000FBE70E20F9E780F830107047FEF7E4BA75
:108910002DE9F0410D00044606D02CB195F87A00FF
:108920000026012803D006E00E20BDE8F08195F86E
:108930009800012829D0D5F8A000042825D0D5F822
:108940009C00042821D04FF00108A6702C2205F1CC
:108950007801201DFDF78AFD84F83060D5F8A40069
:108960006063D5F8A800A0634FF6FF70A4F8240454
:1089700004F58260C4F82004C4F82664A4F82A64CC
:1089800084F82C64207810B104E00720CDE7FF20A4
:1089900084F8540004F155072046C4F81074FEF71B
:1089A00038F9A4F8140404F2144239462846FFF7B3
:1089B00066FE0028B9D104F23120C4F8180420461C
:1089C000FEF727F9A4F81C0404F21C4205F13C0050
:1089D000D4F81814FFF753FE0028A6D184F851806C
:1089E000208BA4F8480084F83C80266484F850600A
:1089F000606900216064454604F13C02781E72DF24
:108A0000002892D1257090E710B50288102A1BD05B
:108A1000112A20D0262A1DD1007A0C46012801D027
:108A2000022817D1A0780521401CB0FBF1F201FB10
:108A30001201204600F04DF800280BD0A16B002950
:108A400008D0BDE810400847C27B012A02D18088C7
:108A5000A1F8240410BD0C46002184F82E1480884F
:108A6000B4F824148842F5D120790028F2D10121EC
:108A7000DFE790F82D246AB1002280F82D240A68DF
:108A8000C0F826248A88A0F82A24897980F82C1432
:108A9000002070470820704710B5044690F8540035
:108AA00074DF012084F82E04002084F8300484F858
:108AB00050000621204602F09CFD002808D1A17834
:108AC000204600F006F810B1A16B01B188470020E4
:108AD00010BD2DE9F05F044600780F4698B1A770ED
:108AE0000025C4F82654A4F82A5484F82C54A079FC
:108AF000012608B1012F09D0E07980B1012F05D0FE
:108B0000022F03D00BE00820BDE8F09F616B21B17C
:108B100084F82D640820884701E084F82D5404F27D
:108B2000274100200A5C0AB1304603E0401C0628B9
:108B3000F8D300204FF002084FF0030B012F06D0AE
:108B4000022F0CD0032F0FD0042F15D110E0A179E4
:108B500029B194F8241011B908B130460DE0E1793B
:108B600011B108B1404608E0207A08B1584604E047
:108B7000607A08B1042000E02846A070616B41B122
:108B8000032801D0042804D1607910B194F82E0490
:108B900098B184F82F5404F13C0018210746FDF7E2
:108BA0007EFC84F83C6004F12C0009F03FFA58B1D7
:108BB00094F82C0084F8510008E084F8305484F8CC
:108BC0002F6407208847E6E784F8516094F8240072
:108BD00058B104F1280009F029FA20B194F82800CE
:108BE00084F8520001E084F8526084F85050A27872
:108BF00004F2264104F582694FF0060A052A64D280
:108C0000DFE802F07C030F22420084F83160C4F8F0
:108C10002054C4E9101584F83C808020A4F8480052
:108C200055E084F8318094F82420384612B10722A8
:108C3000027001E080F800B0228A8281C4F82054DA
:108C40004160E168B96042E06069B860208BB8813A
:108C500094F824003D460028204602D084F83CA029
:108C600001E084F83C600CF0B1FE50B185F814804E
:108C70000421204602F0BDFC38BB052184F83110E8
:108C800021E084F831B01EE0E069B860208CB88142
:108C900094F824003D460028204602D084F83CA0E9
:108CA00001E084F83C600CF091FE48B185F8148036
:108CB0000421204602F09DFC38B984F831A002E07E
:108CC000042084F83100C4F82094A07878B13A46A2
:108CD00004F15400D4F8201472DF00287FF414AF9C
:108CE00094F8301094F8540073DF0028F6D1616BCB
:108CF00011B194F831008847002005E784F831501D
:108D0000F5E790F82F34009933B1002380F82F3421
:108D10000A4303D0012102E008207047002180F8B7
:108D20003014002070470000F7B594B017460500D6
:108D30003CD0287C9DF854100024884252D0002654
:108D40004FF0010E0D9615A8ADF834E00E90ADF879
:108D50003660E9880DAA4FF6FF70ACDF040026D11B
:108D60009DF854002874687CA0B30F961096119655
:108D70001296E888ADF83C00BDF83600ADF840002A
:108D80000DA811900E981290A7F57F408DF83EE047
:108D9000FE3805D039460FA8FFF7C4FB044621E092
:108DA000684600F09DF800256F460FE00E2017B0D2
:108DB000F0BD00BF07EB4506B08800F0F9F80228C7
:108DC00003D144B10FA9B088AEDF6D1C0098A84252
:108DD000F0D807E005E0B1880FA8FFF7A3FB044631
:108DE000F3E708242046E2E738B50D46040018D022
:108DF000BDB12868206028796074FF2020740120AC
:108E00008DF8020041F60F00ADF80000221D694602
:108E10000120A8DF002803D129462046FFF70FFBD9
:108E200038BD0E2038BD38B5002924D0002822D006
:108E30000288502A1FD10546487C0C4600281AD0CB
:108E4000E9886289A81D914215D14189022912D170
:108E5000216800290FD00C3000F006FD08B1002079
:108E600000E001208DF80000A888ADF8020022681B
:108E700069462046904738BD70B5040012D00146BF
:108E80001C221448FDF7F2FA1248134D05602068C1
:108E900050B17ADF002806D1206801682960406857
:108EA000686005E00E2070BD0B487BDF0028FAD11A
:108EB00008484FF6FF711438084A20F8041B05498A
:108EC000343901600021FEF79FF80028EBD0032021
:108ED00070BD00000C350020402C002049590300D3
:108EE0000149496801F00FBA2835002010B5044641
:108EF00000F0B0F808B1204610BD142010BD0000ED
:108F000010B5044600F0A6F8002805D02146BDE8BB
:108F10001040024805F032B910BD0000383500207D
:108F200070B515460E4604460CF05CFD002809D0CD
:108F3000054800EB8400C0692A463146BDE8704010
:108F400002F084BB70BD00002835002010B5044637
:108F500000F080F8002805D02146BDE81040024806
:108F600005F00CB910BD00004035002010B50446D6
:108F700000F070F8002805D02146BDE810400248F6
:108F800005F0FCB810BD00003C35002070B505466A
:108F9000002400F05FF838B12946044805F0EEF8E7
:108FA00008B1022400E00124204670BD34350020C1
:108FB00070B50546002400F04DF838B12946044844
:108FC00005F0DCF808B1022400E00124204670BD61
:108FD0003035002010B51821034805F0AAF81828EC
:108FE00000D0C0B210BD00002835002070B5054685
:108FF0000C4608460CF0F6FC60B1284600F02AF852
:1090000040B10548294600EB8400BDE870401C30A3
:1090100005F0B4B8002070BD2835002070B50546B5
:1090200016460C4608460CF0DDFC00280ED02846FB
:1090300000F010F8002809D00548324600EB840003
:109040002946BDE870401C3002F0CEBA70BD000069
:1090500028350020142801D300207047014601481C
:1090600005F08CB82C3500207CB5054608880C46E8
:109070000930904201D90C207CBD68466DDF002884
:10908000FAD121880820685420881B21401C80B216
:10909000208029542088401C80B220802844DDF89C
:1090A00001100160BDF8051081802088801D80B20C
:1090B00020809DF80010490800D001212954208803
:1090C000401C208000207CBD1FB5044601208DF887
:1090D000060041F60A00ADF80400494A01A9012042
:1090E000A8DF00287DD122885AB14548801C009015
:1090F00094F83C3042F62920616800F08BFF00288C
:109100007BD122895AB13E480A30009094F83C3015
:1091100042F62420E16800F07DFF00286DD1228A0C
:109120005AB137481230009094F83C3042F625206E
:10913000616900F06FFF00285FD1228B5AB130487F
:109140001A30009094F83C3042F62720E16900F094
:1091500061FF002851D1228C5AB129482230009059
:1091600094F83C3042F62620616A00F053FF002854
:1091700043D1228D5AB122482A30009094F83C30D5
:1091800042F62820E16A00F045FF002835D1216B26
:1091900079B102A80BF00FFE194808223230009076
:1091A00094F83C3002A942F6232000F033FF002857
:1091B00023D1606B60B112493A31009102790168A4
:1091C00094F83C3042F62A2000F024FF002814D105
:1091D000A16B89B102A809F01BFF09484230009039
:1091E00000E00AE094F83C30072202A942F6502041
:1091F00000F010FF002800D1002004B010BD0000D6
:109200000A2D002038B501880446212932D015DC0A
:109210001F48204A204DA0EB02004FEAD0004FF03B
:10922000030202EB0040102910D0112905D11BA127
:1092300006F0F2F84FF6FF70688038BD3B2923D066
:109240005629FAD18088132176DF0DE017A106F0A8
:10925000E3F8072000F0A0FC08B1FDF73DFEA1886F
:109260006980154805F0E8F80028E6D0BDE83840E8
:10927000FDF732BE00200090A08869468FDF0028ED
:10928000DBD0FDF729FE38BD8088132176DFEBE7C0
:10929000A07E0300E07D0300782200204469736310
:1092A0006F6E6E656374656400000000436F6E6EE0
:1092B0006563746564000000C02F002010B51A4C6F
:1092C0000188606810290ED011292BD1401E6060E2
:1092D00028D1FDF7A6FC002824D02168002921D040
:1092E000BDE810400847D0B900210122084600F02F
:1092F00031FC08B107280FD107220221012000F01C
:1093000029FC08B1072807D104220221002000F01F
:1093100021FC20B1072802D0216801B1884760688C
:10932000401C606010BD0000382C00202DE9F04783
:1093300001883B4E40F2F3194FF6FF7510291BD000
:1093400011293ED0122954D0502946D1C188F28922
:10935000841D914241D1618902293ED186883046DF
:1093600003F0CAFB050038D004F10C0000F07CFAD1
:10937000A8B3294630464EE0C17B878804460129C0
:109380002BD1A846284603F0B7FB050017D02F8045
:1093900000202872234843464A460168C5F80A104F
:1093A0004068C5F80E0004F1100105F10A0003F051
:1093B00067FC6872F08900280FD129462AE0042052
:1093C00013E0808803F098FB040006D06068FDF786
:1093D00083FE08B10AF08EFE2580BDE8F087FFE726
:1093E0006868FDF779FE0028F7D0BDE8F0470AF07D
:1093F00081BE87880646384603F07EFB0400ECD029
:109400002B464A4606F1080104F10A0003F038FC35
:10941000607221463846BDE8F04700F0D9BF000031
:109420000C350020402C00202DE9F04F04468688A2
:109430000188424897B0834610290CD0112950D09A
:10944000103019296AD01A2974D1217A0C09042CF8
:109450004DD301224CE0394D083DA868C0430B9024
:1094600069680BA804F0AEFE0B990CA800F04BFF46
:109470002C220CA96846FCF7F9FF0027E946A8460C
:1094800010E000BF09EB47005FF00005B0F804A052
:1094900008EB85005146001D04F030FE6D1C1E2DAA
:1094A000F6D37F1C0098B842ECD8142E05D317B021
:1094B0000420BDE8F04FFDF70FBD3146584604F0DB
:1094C00068FE314608F1040004F063FEE07B0228E8
:1094D00030D117B03146BDE8F04F1848001D04F0F8
:1094E00058BE17B03146BDE8F04F04F007BE002269
:1094F000314602F079F8032C01D3012200E000226A
:109500000E4831460C3002F06FF8022C01D30122D4
:1095100000E0002209483146083006E0217A00299F
:1095200008D1617AC1F3C002314617B0BDE8F04FEF
:1095300002F05AB817B0BDE8F08F000030350020B7
:1095400070B51F4E044686B07078002836D020884B
:10955000A588102811D031782846FFF747FD00284C
:109560002CD1204602F0F6FF20460BF04FF806B053
:109570002046BDE8704002F0E5B900208DF80000FB
:10958000142101A8FCF78BFF01208DF804004FF691
:10959000FF70ADF8080004F108000390ADF8065024
:1095A000CDF810D001A801F0A5FD9DF8002031787C
:1095B0002846FFF733FD9DF80000D0E706B070BDE8
:1095C0007C2C00202DE9F04391B00C4605000DD015
:1095D00064B1A07A0A2805D8207C0A2802D8207E07
:1095E0000A2805D9072011B0BDE8F0830E20FAE75C
:1095F0002068286060686860A07AA874207C85F87C
:109600007800207E85F8DE0001268DF8226041F684
:109610001200ADF8200005F1080208A93046A8DFC5
:109620000028E0D1002709E0A06B01AA30F817104C
:109630002889A9DF0028D6D17F1CFFB294F8360014
:10964000B842F1D8207A4FF0000808B9607A38B3F0
:1096500094F83C9094F83D708DF830602021684675
:10966000FCF71DFF42F64E20ADF800000CA802905A
:109670009DF80D00ADF8046040F006008DF80D0077
:109680008DF81190ADF806608DF812708DF80F60AE
:10969000288905F10A02694600F0ECFC0028A2D1F5
:1096A0002146284603F0F2F900289CD1207C18B30B
:1096B000606908B300271CE06069CDF8108000EBFA
:1096C000C7039DF8100007EB870140F00E008DF8EE
:1096D000100005EB4100191D7A30CDE9001033F878
:1096E000022B04A928460AF08DF8002899D17F1C86
:1096F000FFB2207CB842DFD8207E18B3E06908B3FF
:1097000000271CE0E069CDF80C8000EBC7039DF852
:109710000C0007EB870140F00A008DF80C0005EB08
:109720004100191DE030CDE9001033F8022B03A9E8
:1097300028460AF067F80028B1D17F1CFFB2207ECE
:10974000B842DFD8214628460AF0A9F80028A6D159
:10975000207A70B305F5A770009004F14203082247
:1097600042F62221284600F089F8002897D12021CE
:109770006846FCF794FE42F63220ADF800009DF8F2
:109780000D00ADF8046040F00E008DF80D0094F867
:1097900045008DF8110094F846008DF812008DF800
:1097A0000F60288905F5AB72694600F063FC00285C
:1097B0009CD1607A60B105F5AF70009004F13F0371
:1097C000082242F63321284600F058F800288DD1AF
:1097D0002146284602F0CDFD002887D194F83E703E
:1097E0008DF80880202109A8FCF759FE42F64C208C
:1097F000ADF824009DF83100ADF8286040F0040079
:109800008DF8310002A88DF83670ADF82A600B9003
:10981000288905F5B77209A900F02CFC00288BD126
:10982000E168C5F87C116169C5F88011E169C5F886
:109830008411D8E60A46014610460A88102A05D047
:10984000502A05D0512A05D107F00EBB07F032B9D6
:1098500007F072BB704770B504460D460846FCF72A
:1098600029FE2080656070BD007800F0010070471F
:109870000A78027049784170022070472DE9F04162
:1098800088B00F4605461C46164620216846DDF87E
:109890003880FCF704FE9DF80D00ADF8007040F034
:1098A0000201ADF804608DF80D10607810B141F040
:1098B000080101E021F0080141F010008DF80D00D1
:1098C00020788DF8110060788DF81200A0788DF85E
:1098D000130001208DF80F0028894246694600F0E8
:1098E000C9FB08B0BDE8F0810149085C7047000081
:1098F0005A6103000649095C4FF0A040D0F81005FA
:10990000C84010F0010000D0012080F00100704735
:109910005A6103002DE9FC410646C0074FF00005DF
:109920000ED0104F00240122385D0095002311460F
:10993000019505F055FA641C042CF4D300F046F8A8
:10994000B0070DD5074E0024361D0022305D0323DD
:1099500000951146019505F043FA641C042CF4D3DC
:10996000BDE8FC815661030007490B5C4FF0A04144
:10997000D1F804250120984020EA0203C1F80835F7
:109980001040C1F80C057047566103000249085C9D
:10999000012105F029BB0000566103000249085C63
:1099A000002105F021BB0000566103000649095C57
:1099B0004FF0A040D0F80405C84010F0010000D0DE
:1099C000012080F0010070475661030010B50024AB
:1099D0002046FFF7DBFF641C042CF9D310BD10B543
:1099E00000242046FFF7DAFF641C042CF9D310BDD5
:1099F00010B50246064B4FF0FF3000215C5C9442EC
:109A000001D1084610BD491C0429F7D310BD000040
:109A10005A61030070B50C4E0C004FF00005306029
:109A20000BD0012000F06AF808B1022004E0002009
:109A300000F064F800B10B202070706810B9FDF7D9
:109A4000F0F80546284670BD382C002010B50020DF
:109A500000F0DCF908B1062806D1012000F0D6F9A3
:109A600008B1062800D1002010BD00002DE9F04704
:109A70000D468146FFF7BCFF0446042836D2DFF8C6
:109A800074801B481C4EA8F10C0725B3012D0ED085
:109A9000022D2BD104EB440030444578002D25D015
:109AA000B968002922D02846BDE8F047084704EBF2
:109AB0004401755C0E44717849B10E4A4FF48041FF
:109AC000093A8068FDF7DEFA08B987F80390B178A3
:109AD00008F80410E2E78068FDF7FEFA04EB4401A1
:109AE000314418F804008D78A842D7D0BDE8F0873B
:109AF00060610300D02B0020C8340020042801D26C
:109B0000FFF7F8BE002070470146104810B54088A6
:109B1000042907D007290ED00A2915D1BDE8104025
:109B20000AF060BD132176DF0CE000280CD0BDE800
:109B30001040FDF7D1B9A0F57F41FF3904D10448A9
:109B4000FEF7AAFF0828F0D110BD000078220020FF
:109B5000CC2F002070B50023042810D20D4D00EB4F
:109B60004004012A02D101290CD00022094E00EB49
:109B70004000304461B1012906D0022906D00723F4
:109B8000184670BD0E30C2B22A55F9E74270F7E7A9
:109B90008270F5E7C8340020044A0146002012799B
:109BA000D20702D0084600F04DB87047C42B002001
:109BB00070B506461E480024C0E90161B00720D5F3
:109BC0000025012211462846FFF7C4FF6D1C0446FC
:109BD000042D02D2002CF4D013E094B940F23332B9
:109BE00004211448FDF7F6F804000AD1FDF7E0F867
:109BF000040006D10F48104A0021001FFDF704FAA7
:109C00000446F00712D00120FFF784FE74B909481A
:109C10000A4A00210C38FDF7F7F9040006D105487F
:109C2000074A01210838FDF7EFF90446204670BDC8
:109C3000C42B00206C610300199F02004DCD02006F
:109C40009F6D02002DE9F05F6E4C0546002660789E
:109C5000B34618B184F801B003F060F86A4F4FF4CE
:109C60007A694FF4C87A4FF00108182D69D2DFE8FD
:109C700005F00C1313384754696E727B727BC584F0
:109C800084848484B3B6B9BCC5C503F047F838688A
:109C9000FDF722FA06465CE00020FFF787FE002869
:109CA0004FF0000008D0FFF771FE022D02D14FF4F3
:109CB000E16008E0484606E0FFF770FE022D01D1A2
:109CC000C82000E05046410CC0034FF47A7280185F
:109CD00041F10001257052000023FCF783FB01468F
:109CE0002AE00020FFF762FE00284FF0000004D0B9
:109CF000FFF74CFE4FF44870E5E7FFF74FFEDFE754
:109D00000020FFF753FE00284FF0000002D0FFF7BD
:109D10003DFECFE7FFF742FED4E70020FFF746FE07
:109D200000284FF0000002D0FFF730FE01E0FFF7FF
:109D300035FE257040F6CD4100223868FDF7A2F9C6
:109D4000064646E00020FFF70FFE257008E00020E1
:109D500051E025703DE084F801800120FFF704FE0A
:109D6000002240F26661E8E784F801800120FFF7F5
:109D7000FBFD00224FF40051DFE77868FDF7ACF9F6
:109D80000646D5F1110000D02EB10220FFF7FEFDEE
:109D900084F802B01DE0012816D980B2C8214843DA
:109DA000C117C90341EA5041C0034FF47A728018C9
:109DB00041F1000152000023FCF714FB0146002290
:109DC0007868FDF75FF906460220FFF7E7FD84F8A3
:109DD00002803046BDE8F09F02F0A0FFB9E702F034
:109DE0009DFFB4E702F09AFF04E002F097FF002025
:109DF000FFF7D4FD0120FFF7D1FDAAE7FFF7EFFD44
:109E0000A7E70000C42B00206061030001210BF0D4
:109E100079BE00002DE9F84F0546861C00208DF81C
:109E2000000091460F464FF0010A6846FDF776F9AB
:109E30001B4C04F21C4860683860D4E90101194FDA
:109E4000401A3968081A0EE00121404604F0B4F9BE
:109E500003F014F90146404604F0AEF9D4E90101DB
:109E6000401A3968081A401C8642EDD8B9F1000F33
:109E700003D0052065F3891002E0062065F39F50AA
:109E800061683A68114004EB8101C8606068304441
:109E900060609DF80000FDF765F95046BDE8F88F59
:109EA000883D0020582E002070B50D4604460A2932
:109EB00002D10D21FFF7F8FFA0682268411CA160C4
:109EC0001554D4E90101814204D32046BDE8704015
:109ED00004F039BC70BD00000448816840688142CC
:109EE00001D101207047002070470000883D00200C
:109EF000034630B5074800210478426806E000BFF9
:109F000002EBC10005789D4203D0491CA142F7DB5A
:109F1000002030BD802D002000780221FFF7A6BD73
:109F200010B501200BF044FD024800688068BDE8D0
:109F300010400047E02500201CB5044602F0A4FCB8
:109F400000236A46092107F0CDFC052805D1034806
:109F5000012241792046FFF761F81CBD482C002002
:109F60001CB504460020009042F6A620ADF8000083
:109F700001208DF80200084801AA69460068019096
:109F80002046A0DF002805D104480122817920461F
:109F9000FFF744F81CBD00008C610300482C002032
:109FA00005494FF0FF32082841F8202002D3084429
:109FB00080F84820704700009C380020F0B54FF032
:109FC000FF3512B10023082601E008230C260C4CB3
:109FD00005E000BF54F823707F1C04D05B1CB34223
:109FE000F8D32846F0BD26185DB286F8305044F804
:109FF0002310002AF5D1E11881F84800F1E70000AC
:10A000009C3800200249084490F930007047000055
:10A010009C3800202DE9F04188B01E46DDF83880DC
:10A0200014460D00074602D10020FCF755FF14B975
:10A030000020FCF751FF20216846FCF730FA9DF81C
:10A040000D00ADF8044040F002008DF80D00084806
:10A05000ADF80070ADF8064002958DF811604246EB
:10A060006946008800F006F808B0BDE8F0810000FD
:10A070000A2D00202DE9F0438146887891B0904662
:10A080000C4600B901208DF83E002088ADF83C0058
:10A0900000250095607C69460AF054FA6E46A07C63
:10A0A000711C0AF04FFAE07B00289DF8020002D0F4
:10A0B00040F0080001E020F008008DF80200217C4B
:10A0C00011B140F0100001E020F010008DF8020006
:10A0D000217B11B140F0010001E020F001008DF87A
:10A0E0000200217D09B1022100E0012161F342005B
:10A0F0008DF802001C2102A8FCF7D1F9607BC10693
:10A1000001D4800617D50E950EAFE07C791C0AF0BD
:10A1100019FA9DF83800079720F00F00401C20F036
:10A12000F00010308DF838009DF83A0020F006005D
:10A13000801C8DF83A00607B8DF80800A07B8DF8BC
:10A140000900142109A8FCF7AAF90FA8CDE909060E
:10A15000A088ADF83000A06820B1E088ADF82C00F0
:10A16000A0680D90A06998B301950088ADF8100023
:10A17000A06901AD01A94088ADF81200A06940684E
:10A1800006950390A069007B0AF0DCF9A069691CC0
:10A19000407B0AF0D7F9A069807A00289DF8060074
:10A1A00002D040F0080001E020F008008DF8060021
:10A1B000A169C97A11B140F0100001E020F010004F
:10A1C0008DF80600A169097A19B140F0010002E09A
:10A1D0000DE020F001008DF80600A169897B09B12E
:10A1E000022100E0012161F342008DF80600E069E0
:10A1F00000B10590434609AA02A94846AADF11B05A
:10A20000BDE8F083704700002DE9F843154D0026A6
:10A21000009628683746B046406E80471AE0841B97
:10A22000012C00DB012428682146026E6846904715
:10A2300068686946806D8219002006E00B5C175C37
:10A24000BB4201D0012709E0401C2346A042F5D3C0
:10A2500047461E446868406DB042E0DC3846BDE8C1
:10A26000F8830000E025002070B504464FF6FF7526
:10A270000A462846AC4209D14FF480742146104664
:10A2800003F057FF80B2A0420BD070BDFF2CFCD86A
:10A290002146104603F03DFF90F0010F01D020460B
:10A2A00070BD284670BD000070B5084C050009D08F
:10A2B00010342168002907D00868206049682846C2
:10A2C0008847F6E70834F4E770BD000088380020BE
:10A2D000054A012120B1012805D19170FFF7E4BFA3
:10A2E00051700020FAE7704788380020704710B599
:10A2F000D0E90234D1E90220D11AA04101D30120D2
:10A3000010BD002010BD73B58CB006460020009033
:10A310000D9880B100246D4621460DA803F02EFF54
:10A3200030B1009805EB400084800098401C0090FC
:10A33000641C142CF0D32C2269463046FCF796F8A6
:10A340000EB070BD2DE9F04117880646B81D1446C1
:10A350000D46984202D90C20BDE8F08131880722D1
:10A3600006290AD34FF4486C4FF6FF73614501D9B3
:10A37000994202D17088062801D21046ECE7604568
:10A3800001D99842F9D1994203D0984201D0814233
:10A39000F3D80520E85520881221401C80B2208087
:10A3A00029542088401C80B22080411930880BF04D
:10A3B00044FA2188084480B22080411970880BF04B
:10A3C0003CFA2188084420800020C5E7FCF784BDC2
:10A3D00038B54A7A0F4B62B100220A7259690029D6
:10A3E00006D001228DF80020ADF8020068468847AB
:10A3F00038BD0A7A62B19B684C680246194620460D
:10A40000FCF740FE0028F3D0BDE8384009F072BEEA
:10A410005B68F1E70C350020F0B585B016460F46B5
:10A4200004461D4614220B496846FCF71FF80A48EB
:10A430008DF80870ADF80240ADF80A608DF80C5048
:10A44000017800222046FEF7E9FD684600F068FE2C
:10A4500005B0F0BDD8620300EC2C0020FCF716BB61
:10A4600070B5174C2068C06980472068816A012058
:10A4700088472068C06E80472068406D804720680C
:10A48000806D804720680025406E80470AE04E1BA3
:10A49000012E00DB01262168806DCA6D28443146FB
:10A4A000904735446068416DA942F0DCFFF7ACFE8F
:10A4B00005462068816A00208847284670BD000054
:10A4C000E0250020F8B514460D46060009D002220A
:10A4D0006946002008F0E8FFA8B9BDF8000040BABE
:10A4E00030804DB102226946104608F0DDFF50B9B8
:10A4F000BDF8000040BA28805CB102226946042001
:10A5000008F0D2FF08B10120F8BDBDF8000040BA44
:10A5100020800020F8BD000008B5002211466846E2
:10A52000FFF7D0FF00284FF0010002D10149087069
:10A53000002008BDA82A00200D480068A8B10D49D8
:10A54000C0F8B0100C4940F8901F0C4981600C49CC
:10A5500041620C4981620C49C1620C4941610C495C
:10A5600001610C49416000207047012070470000E4
:10A57000E025002049B1020085B10200219F0200C0
:10A58000A93B030021D1020075450300193C0300DB
:10A5900069BD0200B9330300F8B500208DF8000052
:10A5A00004460526FEF72EF8142000F015F800BF2B
:10A5B000FDF7BDFF6846FDF7F1FFC5B2FDF7D6FF19
:10A5C0009DF80000662802D0641CB442F0DB0DB197
:10A5D0000020F8BD0120F8BD2DE9F041040007D0AE
:10A5E000044E4FF47A47751C3846A847641EFAD1CA
:10A5F000BDE8F0814061030010B5002400F0A6F82A
:10A600002146641C032901DA0028F7D110BD00009F
:10A610002DE9FF41002600F0B0F8002825DB284F87
:10A620000024651E04F110003919C0B200F028F9A9
:10A63000D0B9641C502CF5DB80208DF80800002474
:10A6400002A90B2000F01CF970B98DF8084002A98E
:10A650000A2000F015F938B930208DF8000069465D
:10A66000082000F00DF918B1284604B0BDE8F081CB
:10A670004FF4FA6000F0A0F88DF800406946082019
:10A6800000F0FEF80028EFDB4FF47A7000F094F849
:10A6900042F21074204600F08FF802A9A72000F0C3
:10A6A0009BF89DF80800C0F38100032805D0761CB4
:10A6B000322EEFDB00F061F8D6E70020D5E700008E
:10A6C000722B002038B504466946002000F084F85B
:10A6D00010B14FF0FF3038BD9DF800002060002021
:10A6E00038BD0000F8B56946082000F075F84FF055
:10A6F000FF35C0B99DF8000008B10120F8BD6946DA
:10A700000B2000F069F870B99DF80000000601D434
:10A710000220F8BD0C4E002404F11000C0B26946BE
:10A7200000F05AF808B12846F8BD305D9DF80010D9
:10A73000884202D1641C502CEEDB502C01D0032047
:10A74000F8BD0020F8BD0000722B002008B5684657
:10A75000FFF7B8FF002804D10098A02802D06FF0BE
:10A76000010008BDFFF7BEFF0028FADB03D0FFF7AA
:10A770004FFF0028F5DB002008BD38B530208DF8EC
:10A7800000006946082000F07BF84FF0FF3458B90C
:10A790004FF4FA6000F010F8F0208DF800006946E0
:10A7A000082000F06DF808B1204638BD4FF47A70EB
:10A7B00000F002F8002038BD00230AE00122022147
:10A7C000491E11F0FF01FBD1521E12F0FF02F6D11B
:10A7D0005B1C8342F2D370472DE9F343DFF87080AE
:10A7E00081B00026894688F800600120194F034691
:10A7F000009001AA6421386803F05CFF4FEA00056D
:10A8000098F800000028FBD013481449401AC008EB
:10A81000032101EB00441DB120462A4610A111E09E
:10A8200088F80060386864214A460123001D05F05D
:10A83000BBFD054698F800000028FBD025B1204656
:10A840002A460BA104F0ECFD2846BDE8FE8300007B
:10A85000C4240020C0240020A07E0300E07D03006B
:10A860005458204572726F723A202564000000002F
:10A870005258204572726F723A2025640000000021
:10A880007CB5114D00222A708DF8040008788DF8EF
:10A8900005000E480092022301AA6421006803F01B
:10A8A00009FF044628780028FCD054B1084809491B
:10A8B0002246401AC008032101EB004006A104F023
:10A8C000AFFD20467CBD0000C4240020C024002031
:10A8D000A07E0300E07D03005458204572726F7221
:10A8E0003A2025640000000070B588B006460020BC
:10A8F00005900690ADF81410ADF816100190029076
:10A9000001AA05A9304690DF050021D005F0C2F963
:10A910000346114811493246401AC108012000EB94
:10A92000014004460E4904F082FDBDF8042012B92E
:10A93000BDF8060028B1BDF80630204609A104F094
:10A9400076FDBDF808201AB12046164904F068FDCE
:10A9500008B0284670BD0000F87D0300E07D0300CC
:10A96000346B030054686520726571756573746596
:10A97000642054582F5258207061636B6574206CAA
:10A98000656E67746820697320746F6F206C6F6EDA
:10A99000672062792025752F2575206F6374657493
:10A9A000732E0000806B030070B504460948012136
:10A9B00003F01DFCBFF35F8F0025002808D120465F
:10A9C00002F0D0FA002803D1BFF35F8F0148056081
:10A9D00070BD0000542C00202DE9FF410C4620B131
:10A9E0004FF4064004B0BDE8F0812079002748F21A
:10A9F000096538B141F61D5601281BD0022826D022
:10AA0000681DEFE70220207102970397E06801902C
:10AA1000694601A808F00EFE50B102988188E180D5
:10AA200000882081BDF80010029808F081FED9E767
:10AA30002846D7E70A4B6A460021A01D08F0B2FD60
:10AA400038B1074918398F61CF61A842CAD1304661
:10AA5000C8E703488188019808F06AFEF5E700001E
:10AA6000102E0020F0B587B00C460746164614217C
:10AA700001A8FBF714FDA07800B901208DF81A0099
:10AA80002088ADF8180006A80190A079694609F061
:10AA900059FD6D46E079691C09F054FDE078002805
:10AAA0009DF8020002D040F0080001E020F008000C
:10AAB0008DF80200217911B140F0100001E020F082
:10AAC00010008DF80200617911B140F0010001E041
:10AAD00020F001008DF80200217A09B1022100E086
:10AAE000012161F342008DF8020002956089ADF802
:10AAF0000C00A089ADF80E00E089ADF810002069C7
:10AB00000590324601A93846ABDF07B0F0BD000022
:10AB100070B500240F4D10E0686800EBC406307873
:10AB200005F0F6F97178012901D0012100E000213A
:10AB30004140307800F048FA641C28788442EBDB0E
:10AB4000D5E90401084303D0BDE870400AF008BA13
:10AB500070BD0000802D002010B50021024803F0D8
:10AB600046FB80F3100010BDA44100204FF480325A
:10AB70008A400168C1F848230068C0F8082370477C
:10AB80004FF4A07202EB810189B200F08DBA2DE979
:10AB9000F04105460E464FF4A07000EB860081B2EE
:10ABA00028684FF48034B440984622F07F47C0F8BC
:10ABB00008432868C0F84843286804F0FBFD28686B
:10ABC00000EB8600C0F840752868C0F84443B8F12F
:10ABD000000F02D02868C0F80443BDE8F081006887
:10ABE000D0F804057047000070B54379234C44F851
:10ABF00023204279231D03EBC202224C1579204AFF
:10AC0000121BD4082DB10825022000EB04401EA120
:10AC100030E005680A88C5F8082590F9042089788D
:10AC2000002A4FEA411104DB02F1E02282F800140D
:10AC300005E002F00F0202F1E02282F8141D90F903
:10AC400004100122002909DB01F01F0502FA05F5B5
:10AC50004909890001F1E021C1F80051417900253D
:10AC600003EBC1010A71417943F83100032000EB85
:10AC700004400EA104F0D0FB284670BDEC2D00204E
:10AC8000807E0300E07D030052544320696E73749C
:10AC9000616E636520616C726561647920696E69BB
:10ACA0007469616C697A65642E0000005254433AFD
:10ACB00020696E697469616C697A65642E000000B0
:10ACC00090F90400002809DB00F01F0201219140E7
:10ACD0004009800000F1E020C0F8001270470A46E9
:10ACE000022100F067B94FF4827100F0DDB900680D
:10ACF00001210160704700680121416070472DE922
:10AD0000F05F07460C464FF4A07000EB84001FFA7A
:10AD100080FA38684FF48036A6409B4622F07F4583
:10AD2000C0F848633868C0F808633868D0F804850C
:10AD300000EB8402D2F84095C2F84085514638684D
:10AD400004F038FDA9EB080020F07F40012806D16F
:10AD5000102005F01FF85146386804F02BFD3868C4
:10AD6000D0F80485C0F84463A5EB080121F07F41C9
:10AD70003868012900EB840010D0C0F840553868CD
:10AD8000D0F804156FF07F4C6A1A521E22F07F42F1
:10AD9000ACEB0B03934217D362B118E06D1CC0F803
:10ADA0004055102004F0F6FF3868D0F804054045FF
:10ADB0000AD10CE000EB84006D1CC0F840553868E7
:10ADC000D0F80405884202D00D20BDE8F09F012292
:10ADD0003146384600F0EEF80020F6E713460A4602
:10ADE0000021FFF719BB00002DE9F843104D0F4675
:10ADF00080461E4691466946286803F053F90400D0
:10AE000014D01C21FBF74BFB01202071C4F81490D7
:10AE1000380BC4F80080C4E902606946286803F072
:10AE200062F908F0B7FA0020BDE8F8830420FBE7D8
:10AE30001064030010B503780022072B06D2DFE868
:10AE400003F005040610202930000A7010BD01230C
:10AE50000B7003898B818388CB81C06888600A74FA
:10AE600010BD02220A7002898A818288CA81C26862
:10AE70008A60807D062802D00020087410BD012061
:10AE8000FBE703220A70C2888A810289CA81C068EE
:10AE9000886010BD04230B70C0888881CA818A60D5
:10AEA00010BD0520087010BD70B5064D0646002483
:10AEB00055F8241009B130468847641C042CF7D398
:10AEC00070BD0000603A002030B50446006887B0CD
:10AED0000D46806800281FD018216846FBF7DFFA6E
:10AEE0000195A0680590207910B1012810D107E0E4
:10AEF00001208DF8000020690290E068039005E0D1
:10AF000002208DF80000E068000302906069049060
:10AF1000206881686846884707B030BDF0B585B0C5
:10AF200017460C0005463AD0112C38D0082C36D0E4
:10AF30001C481D49401AC6080D2C11D0204604F0AB
:10AF4000A9FE0246012000EB06402B46174904F0FB
:10AF50006EFA2A460821684603F058F802941BE06E
:10AF6000022000EB06402A46114904F059FA2A460D
:10AF70000421684603F04AF827B13878C00701D0A9
:10AF8000012000E002208DF8080000208DF80C0060
:10AF900041F20110ADF80A00684600F0CFF805B0A4
:10AFA000F0BD0000287E0300E07D0300A4750300CF
:10AFB000947403000368C3F84413002A02D00068A5
:10AFC000C0F80413704700002DE9F84F0E463449CD
:10AFD000804601EB5001C007097801D00F0901E05C
:10AFE00001F00F074FF00009424601204946FBF7E8
:10AFF0002AFADFF8B0A004460D46052F4ED2DFE84E
:10B0000007F003161B282C00002E47D001214046D4
:10B0100009F02AFE8DF800906846FCF77FF850464C
:10B02000D0E904120C431543CAE9044532E00EB1DD
:10B03000022114E0002112E04EB10321404609F044
:10B0400013FE4046BDE8F84F01210AF0E3BC0121A0
:10B0500005E0002E22D1042101E02EB1032140465B
:10B06000BDE8F84F09F000BE0021404609F0FCFDA4
:10B07000002140460AF0CEFC8DF800906846FCF7AF
:10B080004DF85046E243D0E904341A4024EA050161
:10B09000CAE904219DF80000FCF764F8BDE8F88FC8
:10B0A000C0390020802D002010B5006842581AB128
:10B0B00004F080FB012010BD002010BD10B5044637
:10B0C000408801F0E1FBA080024801682046BDE80D
:10B0D00010400847502C002010B50446808801F02D
:10B0E000A7FA6080024801682046BDE81040084782
:10B0F000602C00202DE9F04107460024064E074D44
:10B1000005E000BF56F8241038468847641C2879AB
:10B110008442F7DBBDE8F0813C3800207C2C002025
:10B1200010B50446408801F0AFFBA08002480168DA
:10B130002046BDE8104008479862030001490968AD
:10B14000084700001463030070B5002420460AF08D
:10B150002FFC0B4D28688068804740B901F0C2FD84
:10B16000040001D0012070BD2868C06B8047012019
:10B170000AF01EFC2868C0698047204670BD0000A8
:10B18000E025002010B500200AF012FC04480068F9
:10B1900080688047BDE8104001200AF009BC00002B
:10B1A000E025002070B586B0044614216846FBF700
:10B1B00076F9A0890125A0F54040ADF8040020787B
:10B1C0002F4E062833D2DFE800F0320303032C4A67
:10B1D000A08900F0EDF930B9E08943F6FE71A0F5E1
:10B1E0004040884223D8A07B8DF8080020780328AF
:10B1F0000FD000208DF80900A0680390606850B15E
:10B200000A208DF8000060680490684606F0BCFAD9
:10B210000DE00120EEE709208DF800008DF81050B8
:10B22000F3E7A08900F0C4F908B1E08930B1707883
:10B23000002801D006F0FEFB06B070BD606830B19A
:10B240000C208DF80000606802907570DDE70B201F
:10B250008DF80000BDF8040006F090FCF5E760688A
:10B2600048B115208DF80000606802904FF6FF701D
:10B27000ADF80400C9E714208DF80000F6E70000DF
:10B28000682C002038B504460F480078B0B1A4F50A
:10B290007F40FF380FD0684607F0ACFF88B105212A
:10B2A000017001210171C480684607F0B1FF08F008
:10B2B00063F8002038BD48F2036038BD48F20160F1
:10B2C00038BD48F2076038BD182E00200D4808B57B
:10B2D000007888B1684607F08DFF80B106210170C3
:10B2E000684607F095FF0848017809B1012101730C
:10B2F00008F042F8002008BD48F2016008BD48F29D
:10B30000076008BD182E0020243B0020F0B587B050
:10B3100014216846FBF7C3F8314C207818B1684611
:10B32000FFF7C2FD5AE0201D02F043FFA0BB40F62C
:10B33000F8700168481C02D14FF0102041694FF0AD
:10B340008050026940694B1C01D100FB02F1254885
:10B3500000220161A1F54051C160234903F088FB3F
:10B36000002826D122481C238C222049006802F0A4
:10B3700086FE05F02BFF05004FF0000615D0022DCC
:10B3800013D00127062D16D005A807F033FFA8B16A
:10B3900007700C2D1DD200E020E0DFE805F01A1246
:10B3A0001A121A191A191A1416142670666048F21D
:10B3B0000A6007B0F0BD27706660B0E748F207602A
:10B3C000F7E7067105E0032100E00221017100E0CA
:10B3D000077105A807F01CFF07F0CEFF0020E8E783
:10B3E000182E0020BC2E002020640300703A00209C
:10B3F0008863030038B5040014D0694608F01AF9D0
:10B40000B0B1BDF8000000EB80010B4800EB8100FB
:10B41000C16851B1A17A41B1C168491EC160002023
:10B42000A07238BD48F2046038BD48F2056038BDEE
:10B4300048F2096038BD0000FC3A00201FB501A9A0
:10B44000684608F0AFF804B010BD07B513460A46C9
:10B450006946002008F0A6F80EBD07B513460A4657
:10B460000021684608F09EF80EBD20B119B10068B1
:10B4700008600020704748F204607047F8B50D4638
:10B48000040018D0BDB1694608F0D4F8B0B1BDF8D9
:10B4900000000C4900EB800001EB800001210C3022
:10B4A000666802F089FE2E6060680C3068600120DA
:10B4B000A0720020F8BD48F20460F8BD48F20960AF
:10B4C000F8BD0000FC3A002018B1032300220AF066
:10B4D000A1BC48F204607047022300220AF09ABC23
:10B4E000094910B50A69042A0AD0084A096942F8CC
:10B4F000210005480121103002F05EFE002010BD41
:10B5000048F20B6010BD0000F82D0020603A0020CA
:10B510002DE9F84F044624480078D8B1F4B112213F
:10B520002046FAF7BCFF0320DFF88090208000253A
:10B5300004F1100804F10E0A05EB850109EB810600
:10B5400030897189084487B2706805F0C9FD032805
:10B5500007D009E048F20160BDE8F88F48F20460C6
:10B56000FAE72088401E20806088F16808446080E7
:10B570002089718908442081608938446081C7F539
:10B580008060A18980B2814200D2A0815346A21D71
:10B59000211D2846CDF8008008F0E8F86D1CADB2FA
:10B5A000022DC9D30020D7E7182E0020FC3A002036
:10B5B00043F6FE71A0F54040884201D80120704753
:10B5C0000020704710B504460078182802D1FDF716
:10B5D00001FD207010BD10B504460078182802D176
:10B5E000FDF7F8FC207010BD0AB102F0D2BD02F0E8
:10B5F00085BD70B50D460446B0F81414D0F810049B
:10B600000122FDF7FDF800B1057004F13C0204F5DC
:10B61000826104F1540072DF70BD000070B5134602
:10B6200000220546112900D10122074C33B12179AE
:10B63000FDF7F4FC00226178284600E06178BDE85F
:10B640007040FDF7EBBC0000F42C0020F7B5174666
:10B650000E0011D00098002560B1002421466846F4
:10B6600002F08CFD18B1A0B23946B0476D1C641CC5
:10B67000142CF3D32846FEBD0020FEBD10B50028D3
:10B6800021D0114B0022001F196803E0814203D82A
:10B690000A4649680029F9D152B11368841A9C42BC
:10B6A00004D1006818441060104602E0506000E0C9
:10B6B000186039B102680B1A934203D10B681A441F
:10B6C00002604968416010BDB42E0020406807F058
:10B6D000B1BD00000EB517A19DF8080020F00F00C5
:10B6E000401C20F0F00010308DF80800082202A85D
:10B6F0007CDF08B1FBF7F0FB40F2C73078DF08B120
:10B70000FBF7EAFB0020009001900620ADF8000056
:10B710000C20ADF802001420ADF804004FF4967030
:10B72000ADF8060068467ADF002801D0FBF7D4FBAD
:10B730000EBD00006E5246355F50656E0000000081
:10B7400070B510B14FF4064070BD1C4C0025207B35
:10B7500008B1257301E000F0A5F8207808282AD266
:10B76000DFE800F02904080C10291422BDE870401D
:10B7700000F026B8BDE8704000F082B8BDE8704027
:10B7800000F064B8BDE8704000F040B806202070BA
:10B7900060880A4900EB8000283901EB800040688E
:10B7A000BDE8704005F0F2BC072020706560BDE880
:10B7B000704005F0F9BC48F20E6070BD243B0020DB
:10B7C0001149F0B48A1C00200346A1F128050C1889
:10B7D000A67A4EB1A37200EB800405EB8404E66800
:10B7E00016B9247C012C0AD0401C80B20228EED36A
:10B7F0000B704B804B60F0BC41F61D5070471080C1
:10B80000F0BC00F03DB80000243B00200C4841880B
:10B8100001EB8102A0F1280101EB8201CA6852B15B
:10B82000052101700748022181800168002301225F
:10B83000054803F081B8042202704968F6E7000069
:10B84000243B0020202E0020BC2E002038B50A49C1
:10B85000084803240B684268898803EB81015388F8
:10B860000470DB1C00201B0400909B0B034803F0BA
:10B87000B7F938BD243B0020202E0020BC2E00202C
:10B88000074910B54888091D07F024FF18B1BDE825
:10B890001040FFF7DBBFBDE81040FFF7B7BF000067
:10B8A000243B002070B5194C0121207808281AD2B9
:10B8B000DFE800F00419191C252929182089134AEA
:10B8C000401C2081002060802073283A00EB800318
:10B8D00012F8233043B100232518401C80B2AB720C
:10B8E0000228F3D3217070BD0123F5E76068084991
:10B8F00040888A88C01C10448880022004E000F040
:10B9000009F8062000E00720207070BD243B0020CD
:10B91000202E00200A4909484988026801EB81036A
:10B920000749283901EB83014B6803604A6082882C
:10B930000A8102228280002008747047202E002095
:10B94000243B00202DE9F043064680883288DFF84A
:10B950005C8185B00746502A37D010DC5449554BDE
:10B9600006F10A05A1EB03014FEAD1014FF00203F2
:10B9700003EB0144352A3AD0362A07D168E0522A2F
:10B9800002D0542AF9D102E001F090FA82E01422A8
:10B9900049496846FAF76AFDADF80270384600F08A
:10B9A00073FFADF8040000F011FA0022444698F845
:10B9B00004103846FDF732FB0022E1783846FDF7E7
:10B9C0002DFB6846FFF77AFB64E0307B012861D1EC
:10B9D000B07A01285ED13089A0F52451023959D1BD
:10B9E0000121384601F0B6FA09F096FF52E098F8C6
:10B9F0000610FDF7FBFA00284CD0002298F806103C
:10BA00003846FDF70BFBF288B2F5857F17D012B1EF
:10BA100020462AA10BE02A88012A03D0204636A11D
:10BA200003F0FEFC6A88012A04D0204641A103F0FD
:10BA3000F7FC04E0A98800223846A1DF08B1002104
:10BA400025E0012298F807103846FDF7E7FA21E0D3
:10BA50004FF0000998F80710FDF7C8FAD0B100229E
:10BA600098F807103846FDF7D9FAF28812B1204647
:10BA700012A104E0AA88012A04D020462DA103F0D7
:10BA8000CFFC03E0A87900B1012081464946384641
:10BA900009F04EF90022364998F80200FDF740FA05
:10BAA00005B0BDE8F04308F0A9BB0000482C002019
:10BAB000E07D0300E07D0300E4610300556E6578DE
:10BAC00070656374656420474154542073746174D5
:10BAD0007573207768696C652067657474696E6733
